:100000000C9446010C9477010C9477010C947701C1
:100010000C9477010C9477010C9477010C94770180
:100020000C9477010C9477010C9477010C94770170
:100030000C9477010C9477010C9477010C94770160
:100040000C9477010C9477010C9477010C94770150
:100050000C9477010C9477010C9477010C946D0744
:100060000C9477010C94E1070C94B7070C9477017A
:100070000C9477010C9477010C9477010C94770120
:100080000C9477010C9477010C9477010C94770110
:100090000C9477010C9477010C9477010C94770100
:1000A0000C9477010C9477010C9477010C947701F0
:1000B0000C9477010C9477010C9477010C947701E0
:1000C0000C9477010C9477010C9477010C947701D0
:1000D0000C9477010C9477010C9477010C947701C0
:1000E0000C9477010C949C020C9474060C94A0025E
:1000F0000C94FE0E0C94A00D0C948E020C94A40291
:100100000C94AE020C94CC0D0C94590D0C947B0203
:100110000C94EF0D0C9488020C945D020C949005E5
:100120000C94D30E0C945F0D0C94B5060C947E02C7
:100130000C946D050C9400070C9417080C94920213
:100140000C946F020C9473020C9496020C94D605D6
:100150000C94AA020C949E050C9477020C94310A1C
:100160000C9484020C9423060C941F0E0C94070E1E
:100170000C943B0E0C9440050C947C050C94880D5B
:100180000C94580200002100240027002A002D00B2
:100190003000330001010000040107010A010000E2
:1001A0002200250028002B002E003100340002011F
:1001B0000000050108010B010505050507050808F4
:1001C0000808020202020A0A0808040404040101E1
:1001D00001010101010103030303030303030407F6
:1001E00007070C0C0C0C0C0C0C0C0202020206068D
:1001F0000606060606060B0B0B0B0B0B0B0B010280
:100200001020200808102040102040800201020128
:1002100008040201010204081020408080402010E0
:100220000804020180040201804020100804020139
:1002300008040201010204081020408001020408A1
:100240001020408000000A0B02090C0D0E08070365
:100250000401000000000000000000000000000099
:10026000000000000000000000000000000000008E
:10027000121110000000000000000000000000004B
:1002800000000000000000000000170811241FBE3D
:10029000CFEFD1E2DEBFCDBF00E00CBF12E0A0E0A7
:1002A000B2E0E6E6F5E200E00BBF02C007900D9277
:1002B000AE31B107D9F725E0AEE1B2E001C01D9241
:1002C000A236B207E1F711E0C6E4D1E000E006C0D3
:1002D00021970109802FFE010E946911C534D107C1
:1002E00080E00807A9F70E9492080C94B1120C94C0
:1002F000000020914703263051F4892BF1F48091BE
:100300004A0390914B039827892798270895203115
:10031000A1F4FC01EE0FFF1F3796809146049091E7
:1003200047040297E817F90740F4E05DFC4F86891F
:100330009789892798278927089590E080E0089574
:10034000BF92CF92DF92EF92FF920F931F93CF93C2
:10035000DF93082F7A01690110E08FE0B82EC62FD5
:10036000D0E0CC0FDD1F80913403181708F045C092
:10037000A0913203B09133031B9DA00DB11D112438
:10038000FD01EC0FFD1F0190F081E02D011115C062
:10039000309779F08091460490914704049758F083
:1003A00080914804811107C080914703A601B701DD
:1003B00019951F5FD8CF80E0F9CF1E968C91081356
:1003C000F8CF3097E1F0809146049091470404976C
:1003D00090F08091480481110EC080914703A601DE
:1003E000B701DF91CF911F910F91FF90EF90DF90B8
:1003F000CF90BF90199480E0F2CF85E0011181E0A9
:10040000DF91CF911F910F91FF90EF90DF90CF90F0
:10041000BF900895AC01FC018FEF9FEF9F01241B5B
:10042000350B261737079CF42191822728E030E00E
:10043000DC01A170BB2796958795AB2B21F0A1E03D
:100440008A27A0EA9A272150310991F7E7CF08952A
:10045000282F30E0F901EC5BFD4F9491F901E25057
:10046000FE4F449128543E4FF9012491222309F470
:1004700035C0992311F191509231F8F4E92FF0E051
:100480008827EA5BFD4F8F4F0C94691177027B023E
:1004900058026F0273025D027E02840288028E029D
:1004A000920296029C02A0025D02A402AA02AE027F
:1004B000809180008F7780938000E22FF0E0EE0F34
:1004C000FF1FE256FE4FA591B4918FB7F894EC91BF
:1004D000611148C040954E234C938FBF0895809181
:1004E00080008F7DE8CF80918000877FE4CF84B546
:1004F0008F7784BDE2CF84B58F7DFBCF8091B00034
:100500008F778093B000D9CF8091B0008F7DF9CFE5
:10051000809190008F7780939000CFCF8091900052
:100520008F7DF9CF80919000877FF5CF8091A000DB
:100530008F778093A000C1CF8091A0008F7DF9CFED
:100540008091A000877FF5CF809120018F778093E5
:100550002001B3CF809120018F7DF9CF80912001C0
:10056000877FF5CF4E2BB8CFCF93DF9390E0FC0180
:10057000E250FE4F249188549E4FFC0184918823C1
:10058000D1F090E0880F991FFC01EC57FE4FA59128
:10059000B491FC01E256FE4FC591D49161110EC099
:1005A0009FB7F8948C91E22FE0958E238C9328814D
:1005B000E223E8839FBFDF91CF9108958FB7F8942E
:1005C000EC91E22BEC938FBFF6CF90917B00977F5D
:1005D00090937B008653806480937C0080917A00A6
:1005E000806480937A0080917A0086FDFCCF8091B0
:1005F00078009091790008953FB7F89480918F0228
:1006000090919002A0919102B091920226B5A89B80
:1006100005C02F3F19F00196A11DB11D3FBFBA2F94
:10062000A92F982F8827BC01CD01620F711D811D54
:10063000911D42E0660F771F881F991F4A95D1F7D9
:1006400008952F923F924F925F926F927F928F9276
:100650009F92AF92BF92CF92DF92EF92FF920F9351
:100660001F93CF93DF93C0914C05D0914D052097F8
:1006700049F48091490590914A05049718F081E06A
:1006800080934B0580914B05882371F0809146043F
:1006900090914704049740F180914804811124C04F
:1006A00080914603811120C010924B0510924D0598
:1006B00010924C0510924A0510924905D0E0C0E016
:1006C000CE01DF91CF911F910F91FF90EF90DF90BE
:1006D000CF90BF90AF909F908F907F906F905F90E2
:1006E0004F903F902F900895209709F04BC00E94A3
:1006F000FC029B01AC0160E070E080E090E0A09023
:100700003E03B0903F03C0904003D0904103E0907F
:100710004203F090430300914403109145030E946B
:100720007A11E0913C03F0913D031F01220C331C30
:100730002E0E3F1E5101C12CD12CE12CF12C00E0DA
:1007400010E00E94831109F008F4BACFC091490566
:10075000D0914A058E0102501109B80189E494E054
:100760000E940A02F801E75BFB4F8083C85BDB4F06
:10077000988380913A0390913B0397FD03C061E019
:100780000E942802809138039091390318161906A7
:100790000CF0F0C08091360390913703DC01ED91AD
:1007A000FC910480F581E02D1995C0914905D09107
:1007B0004A0520914C0530914D05C21BD30B8C1777
:1007C0009D0760F48091360390913703DC01ED9131
:1007D000FC910480F581E02D1995EC01209709F436
:1007E00046C0809136039091370360914C0570911B
:1007F0004D05675B7B4FDC01ED91FC910280F3813D
:10080000E02DAE011995EC0180914C0590914D05BC
:100810008C0F9D1F90934D0580934C059E0140E0E9
:1008200050E060E070E080E090E0A0904E05B09075
:100830004F05C0905005D0905105E0905205F090C2
:10084000530500915405109155050E947111209394
:100850004E0530934F0540935005509351056093DA
:1008600052057093530580935405909355058091DC
:10087000360390913703DC01ED91FC910480F58102
:10088000E02D199520913803309139038217930791
:10089000ACF40E94FC024B015C0160933E03909219
:1008A0003F0380934003B0924103109242031092A1
:1008B0004303109244031092450302CF8091360304
:1008C00090913703DC01ED91FC910680F781E02DDA
:1008D0001995D0E0C0E020914C0530914D058091F4
:1008E000490590914A052817390708F4E9CE0E9476
:1008F000FC029B01AC0160E070E080E090E0A09021
:100900003E03B0903F03C0904003D0904103E0907D
:100910004203F090430300914403109145030E9469
:100920007A11E0913C03F0913D031F01220C331C2E
:100930002E0E3F1E5101C12CD12CE12CF12C00E0D8
:1009400010E00E94831109F008F4BACE80913A03B6
:1009500090913B0397FD03C060E00E942802109233
:100960004B0510924D0510924C0510924A051092BD
:100970004905A6CEC0914905D0914A0580914C0504
:1009800090914D05C81BD90BD1F080913603909101
:100990003703DC01ED91FC910280F381E02DAE0183
:1009A00069E474E01995EC01809136039091370366
:1009B000DC01ED91FC910680F781E02D1995809185
:1009C0004C0590914D058C0F9D1F90934D05809384
:1009D0004C059E0140E050E060E070E080E090E077
:1009E000A0904E05B0904F05C0905005D090510595
:1009F000E0905205F0905305009154051091550573
:100A00000E94711120934E0530934F05409350057D
:100A1000509351056093520570935305809354058C
:100A20009093550558CF20914604309147042430C7
:100A3000310540F090914804911104C09091460313
:100A4000992379F025E030E030934A052093490559
:100A500090914A04906890934A0480934B040C94BC
:100A6000210390E080E008952FB7F89460918B0205
:100A700070918C0280918D0290918E022FBF08950B
:100A8000AF92BF92CF92DF92EF92FF920F931F939C
:100A9000CF93DF936C017B018B01040F151FEB01DA
:100AA0005E01AE18BF08C017D10759F06991D60191
:100AB000ED91FC910190F081E02DC6011995892BF3
:100AC00079F7C501DF91CF911F910F91FF90EF90C2
:100AD000DF90CF90BF90AF900895FC01538D448D6F
:100AE000252F30E0842F90E0821B930B541710F0D9
:100AF000CF96089501970895FC01918D828D9817E6
:100B000061F0A28DAE0FBF2FB11D5D968C91928DBD
:100B10009F5F9F73928F90E008958FEF9FEF0895EE
:100B2000FC01918D828D981731F0828DE80FF11DB7
:100B3000858D90E008958FEF9FEF0895FC01918DD2
:100B4000228D892F90E0805C9F4F821B91098F73CB
:100B50009927089583E992E00E949E0521E0892B60
:100B600009F420E0822F0895FC01A48DA80FB92F6D
:100B7000B11DA35ABF4F2C91848D90E001968F73C5
:100B80009927848FA689B7892C93A089B1898C91E4
:100B9000837080648C93938D848D981306C0028833
:100BA000F389E02D80818F7D80830895EF92FF92FD
:100BB0000F931F93CF93DF93EC0181E0888F9B8D80
:100BC0008C8D98131AC0E889F989808185FF15C03A
:100BD0009FB7F894EE89FF896083E889F98980815D
:100BE0008370806480839FBF81E090E0DF91CF912C
:100BF0001F910F91FF90EF900895F62E0B8D10E04E
:100C00000F5F1F4F0F731127E02E8C8D8E110CC0BC
:100C10000FB607FCFACFE889F989808185FFF5CF07
:100C2000CE010E94B405F1CFEB8DEC0FFD2FF11D2D
:100C3000E35AFF4FF0829FB7F8940B8FEA89FB8944
:100C400080818062CFCFCF93DF93EC01888D8823A2
:100C5000B9F0AA89BB89E889F9898C9185FD03C01F
:100C6000808186FD0DC00FB607FCF7CF8C9185FF04
:100C7000F2CF808185FFEDCFCE010E94B405E9CF90
:100C8000DF91CF91089580E090E0892B29F00E94B8
:100C9000AA0581110E94000080E090E0892B49F0B4
:100CA00080E090E0892B29F00E94000081110E94D1
:100CB000000080E090E0892B49F080E090E0892BF3
:100CC00029F00E94000081110E94000080E090E065
:100CD000892B49F080E090E0892B29F00E940000E8
:100CE00081110C94000008951F93CF93DF93EA01C4
:100CF0006531710598F59B01240F351F25313105AC
:100D000068F5509147035350A0914905B0914A05A9
:100D10001297CC0FDD1F660F771F90E080E08C17D5
:100D20009D0709F15230C0F49C012B5F3F4FA21781
:100D3000B30790F0FB01E80FF91FE85BFD4F40811E
:100D400011819C01205D3C4FF901E45EFE4F108350
:100D5000235E3E4FF90140830296E1CF82E0DF91AE
:100D6000CF911F91089580E0FACF1F93CF93DF9327
:100D7000EA016531710598F59B01240F351F253176
:100D8000310568F5509147035350A0914905B09142
:100D90004A051297CC0FDD1F660F771F90E080E0A9
:100DA0008C179D0709F15230C0F49C012B5F3F4F17
:100DB000A217B30790F0FB01E80FF91FE25EFD4FA9
:100DC000408111819C01205D3C4FF901E45EFE4FA2
:100DD0001083235E3E4FF90140830296E1CF82E00B
:100DE000DF91CF911F91089580E0FACF9FEF980F88
:100DF000973F08F081E0682F81E090E00C94481064
:100E0000EF92FF920F931F93CF93DF938B017A01A1
:100E1000D0E0C0E0CE15DF0509F455C0011511057D
:100E200011F5CE010E9479019C0121503109273F23
:100E3000310508F050C0209100022817190679F0FA
:100E4000809300020E94F606809100029FEF980FA7
:100E5000973F28F4E0913203F0913303868721967F
:100E60000F5F1F4FD7CF01301105B1F4CE010E94A3
:100E700079018536910578F52091470228171906E2
:100E800071F3682F80934702853608F060E082E0B6
:100E900090E00E944810E3CF0230110501F7CE0127
:100EA0000E94790185369105B0F4209146022817F9
:100EB0001906A9F2682F80934602853608F060E093
:100EC00083E090E0E6CF80E0DF91CF911F910F911A
:100ED000FF90EF90089583E0F7CF1F920F920FB627
:100EE0000F9211242F933F938F939F93AF93BF93B0
:100EF00080918B0290918C02A0918D02B0918E0214
:100F000030918A0223E0230F2D3758F50196A11D59
:100F1000B11D20938A0280938B0290938C02A09340
:100F20008D02B0938E0280918F0290919002A091D9
:100F30009102B09192020196A11DB11D80938F0282
:100F400090939002A0939102B0939202BF91AF91BF
:100F50009F918F913F912F910F900FBE0F901F90F7
:100F6000189526E8230F0296A11DB11DD2CF1F921E
:100F70000F920FB60F9211240BB60F922F933F933F
:100F80004F935F936F937F938F939F93AF93BF9391
:100F9000EF93FF9383E992E00E94B405FF91EF91F4
:100FA000BF91AF919F918F917F916F915F914F9181
:100FB0003F912F910F900BBE0F900FBE0F901F907F
:100FC00018951F920F920FB60F9211240BB60F9225
:100FD0002F938F939F93EF93FF93E091A302F09150
:100FE000A4028081E091A902F091AA0282FD1DC0B5
:100FF00090818091AC028F5F8F732091AD02821738
:1010000041F0E091AC02F0E0ED56FD4F958F8093FA
:10101000AC02FF91EF919F918F912F910F900BBE9A
:101020000F900FBE0F901F9018958081F2CFCF9335
:10103000DF93C3E9D2E01B821A8288EE93E0A0E03E
:10104000B0E08C839D83AE83BF838FE092E0998371
:10105000888385EC90E09D878C8784EC90E09F8767
:101060008E8780EC90E0998B888B81EC90E09B8B55
:101070008A8B82EC90E09D8B8C8B86EC90E09F8B32
:101080008E8B198E1A8E1B8E1C8E8FE090E00E9424
:101090008C1121E0FC012687A0E3B3E013969C931A
:1010A0008E93129714962C93149715962C9315974C
:1010B0001796DC93CE93169720E430E019963C9374
:1010C0002E931897109247041092460410924804E9
:1010D00010924A051092490510924B0510924D0549
:1010E00010924C05EEE4F5E0108211821282138218
:1010F0001482158216821782E6E5F5E010821182CD
:1011000012821382148215821682178211969C9382
:101110008E9384E090E01B969C938E931A97DF91B8
:10112000CF910895CF93DF9300D000D01F921F92EC
:10113000CDB7DEB7789484B5826084BD84B5816014
:1011400084BD85B5826085BD85B5816085BD809192
:101150006E00816080936E0010928100809181000A
:101160008260809381008091810081608093810002
:10117000809180008160809380008091B1008460C4
:101180008093B1008091B00081608093B000809125
:1011900091008260809391008091910081608093A2
:1011A0009100809190008160809390008091A100D7
:1011B00082608093A1008091A10081608093A10052
:1011C0008091A00081608093A000809121018260C5
:1011D0008093210180912101816080932101809180
:1011E000200181608093200180917A008460809347
:1011F0007A0080917A00826080937A0080917A00F0
:10120000816080937A0080917A00806880937A0070
:101210001092C10088E198E20FB6F894A8958093E7
:1012200060000FBE90936000E091A302F091A402D1
:1012300082E08083E0919F02F091A0021082E09111
:10124000A102F091A20287E680831092AB02E091A6
:10125000A702F091A80286E08083E091A502F091B8
:10126000A602808180618083E091A502F091A602B0
:10127000808188608083E091A502F091A602808140
:1012800080688083E091A502F091A60280818F7D25
:10129000808380913A0390913B0397FD08C061E001
:1012A0000E94B40260E080913A030E942802E0911B
:1012B0003603F091370314821582168217828091CB
:1012C000360390913703DC01ED91FC910680F781A4
:1012D000E02D19958091360390913703DC01ED9153
:1012E000FC910480F581E02D19959093390380934A
:1012F000380384E091E090933D0380933C030E9487
:10130000FC0240913C0350913D03E7E0E49F9001D3
:10131000E59F300D1124DC01CB01820F931FA11D2D
:10132000B11D5C016D01E12CF12C87018983BA822A
:10133000AB83DC82ED82FE820F83188780933E03AD
:10134000B0923F03A0934003D09241031092420316
:1013500010924303109244031092450310924704E5
:1013600010924604E0913003F091310385EB96E052
:101370009583848380E097E09387828784E796E073
:101380009783868360E086E30E94B40260E087E38F
:101390000E94B40290E080E00E944010803371F11E
:1013A00081E080930002109247021092460260E3AF
:1013B00090E080E00E944810809100020E94F606B2
:1013C00060914702653608F014C282E090E00E9406
:1013D000481060914602653608F060E083E090E0D6
:1013E0000E944810809100029FEF980F973F58F598
:1013F000E0913203F0913303868725C081E090E0CD
:101400000E94401089838150873F10F001E00983DA
:1014100019811093000282E090E00E94401085360E
:1014200008F080E08093470283E090E00E94401043
:10143000853608F080E080934602E0913203F09117
:101440003303A980A68604E0602E712C88E0882EE4
:10145000912CA89550904B05552009F4CCC10E94C1
:1014600021038091000290E090931F0280931E025E
:101470000091470210E01093210200932002209176
:101480004602A22EB12CB0922302A09222027092A8
:101490004902609248028AE0C82ED12CD0924B02B9
:1014A000C0924A0220E030E040E251E46091010243
:1014B0007091020280910302909104020E94820FB7
:1014C0001B012C010E94351170934D0260934C0258
:1014D00020E030E040E251E460917A0270917B02BA
:1014E00080917C0290917D020E94820F6B017C01B1
:1014F0000E94351170934F0260934E02B801110F94
:10150000880B990B0E94230FA20191010E94571092
:101510000E9435117093510260935002B501BB0CCB
:10152000880B990B0E94230FA70196010E94571068
:101530000E943511709353026093520280917E0293
:1015400090E0909355028093540280917F0290E046
:101550009093570280935602C0907602D090770203
:10156000E0907802F09079020AE0C00ED11CE11CF4
:10157000F11C0E943405C616D706E806F90608F0E5
:1015800070C087E30E94E502BC01990F880B990B9C
:101590000E94230F6B017C0120E030E04BE953E413
:1015A0000E941C0F87FF83C310917102A70196014F
:1015B0006091720270917302809174029091750231
:1015C0000E945710609372027093730280937402AA
:1015D000909375021F5F10937102109270028091B8
:1015E00071028436A0F110927E0220E030E048ECD7
:1015F00052E4609172027091730280917402909132
:1016000075020E94C31020E030E040EA50E40E94DE
:10161000820F20E030EC4FE754E40E94C3102AE030
:1016200037ED43E25CE30E94C310609301027093C4
:1016300002028093030290930402109271021092AE
:1016400072021092730210927402109275020E943C
:1016500034056093760270937702809378029093BA
:101660007902C0908602D0908702E0908802F090C4
:1016700089023AE0C30ED11CE11CF11C0E94340522
:10168000C616D706E806F90608F0AAC086E30E9447
:10169000E502BC01990F880B990B0E94230F6B0187
:1016A0007C0120E030E048EC52E40E9464111816FE
:1016B0000CF009C320E030E84EE054E4C701B60165
:1016C0000E941C0F87FFFFC2A0908102A982A70180
:1016D00096016091820270918302809184029091C0
:1016E00085020E9457106093820270938302809358
:1016F0008402909385020A2D0F5F0093810210925D
:10170000800280918102843608F460C010927F02CA
:1017100020E030E048EC52E4609182027091830254
:1017200080918402909185020E94C31020E030E0F5
:1017300040EA50E40E94820F20E030EC4FE754E48E
:101740000E94C31020E030E040E05FE30E945610AA
:101750002AE037ED43EA5CE30E94C3106B017C0191
:1017600080917E0229EA33E140E85FE3811118C0ED
:1017700029EC3EE84DE05BE36091010270910202CA
:1017800080910302909104020E94820F9B01AC01A0
:1017900062E27DEF86E89FE30E9456109B01AC0158
:1017A000C701B6010E94C31060937A0270937B0256
:1017B00080937C0290937D021092810210928202AB
:1017C0001092830210928402109285020E943405C6
:1017D00060938602709387028093880290938902B7
:1017E0000E943405613C72438E42974F08F477C2E1
:1017F000FFCF60E0EACD8091360390913703DC01A2
:10180000ED91FC910084F185E02D1995209148041B
:10181000892B09F4BFC0211144C00E94FC029B0126
:10182000AC0160E070E080E090E0A0903E03B090FA
:101830003F03C0904003D0904103E0904203F090FA
:10184000430300914403109145030E947A11A09133
:101850003C03B0913D03FD01EE0FFF1FEA0FFB1F9C
:101860005F01D12CC12CE12CF12C8701E983BA82D4
:10187000CB82DC82ED82FE820F831887C12CD12CB3
:10188000E12CF12C00E010E00E94831109F008F433
:1018900075C01092470410924604BB24B394B092D2
:1018A000480480914804882309F458C200914604F2
:1018B000109147040115B1E01B0711F41092480480
:1018C000C12CDD24D394C01AD10AE0903603F090E5
:1018D00037030A5B1C4F1A821982A980BA80CA1486
:1018E000DB0439F10E943405D70118966D937D937E
:1018F0008D939C931B97D701ED91FC910284F38506
:10190000E02DC701199597FFEDC10E943405F7013D
:101910002085318542855385621B730B840B950BA3
:1019200024813581468157816217730784079507A3
:1019300010F38091460490914704009709F0DDC1AF
:10194000A980BA80AB2809F4D8C150914603552329
:1019500009F4D3C1609134032091320330913303F1
:1019600040E0641709F4C7C1215F3F4FF901319787
:101970007081571709F4C1C14F5FF3CF80913603CF
:1019800090913703DC01ED91FC910284F385E02D09
:10199000199587CF222309F464CD0E94FC029B0194
:1019A000AC0160E070E080E090E0A0903E03B09079
:1019B0003F03C0904003D0904103E0904203F09079
:1019C000430300914403109145030E947A11A091B2
:1019D0003C03B0913D03FD01EE0FFF1FEA0FFB1F1B
:1019E0005F01D12CC12CE12CF12C8701E983BA8253
:1019F000CB82DC82ED82FE820F831887C12CD12C32
:101A0000E12CF12C00E010E00E94831109F008F4B1
:101A100028CD1092480400914604109147040430E8
:101A2000110508F41ECDABE4B4E0EEEF1D92EA958B
:101A3000E9F7D0904603D0924904C0904703C09282
:101A40004A0470924A056092490540913503442347
:101A500009F407CDDD2009F4D3C15091340320915E
:101A600032033091330390E080E0851708F0F9CC21
:101A70000196EFE0AE2EA89EF001A99EF00D112474
:101A80003197E20FF31F6081D612EFCFF7E0CF1648
:101A900061F0FC1508F482C1AA24A394CA1448F08A
:101AA00048E050E05A8349838BC140E0DD2009F4CF
:101AB000D8CC542E24E030E03A83298387C168E0F3
:101AC00070E07A8369837CC1A980BA80B0924704B0
:101AD000A09246042D2D30E0EFEFEC0DE03108F040
:101AE0008DC1F0E08827E858F24F8F4F0C946911B0
:101AF000A00DA00DCC0DCC0DEF0D070E880DFE0E28
:101B0000FE0EFE0EFE0EFE0EFE0EFE0E1F0E3B0E17
:101B1000232B09F473C175E0E72EF12CF0924A05EE
:101B2000E092490528E030E050E040E066E08D2D8D
:101B30000E94A001882309F492CC0E94130591CC45
:101B4000232B09F45BC1409148035091490354276A
:101B50004527542720914A0330914B0332272327EE
:101B60003227B90167707727E1E0672B09F4E0E0DD
:101B7000C90163E0969587956A95E1F78E0F80938A
:101B80004B0490E0059690934A058093490561E0E7
:101B9000C612CDCF60E0CBCF232B09F42FC14091EB
:101BA00048035091490354274527542720914A035D
:101BB00030914B03322723273227822F880F8093BF
:101BC0004B0490E0059690934A058093490593E075
:101BD000F92E62E0CF1409F4AACF63E0A8CF4091B8
:101BE00048035091490354274527542790924A05AA
:101BF0008092490584E0E8E4F3E0ABE4B4E00190CE
:101C00000D928A95E1F721E030E064E090CF4091B9
:101C100048035091490354274527542790924A0579
:101C20008092490584E0E8E4F3E0ABE4B4E001909D
:101C30000D928A95E1F721E030E065E078CF4091A0
:101C400048035091490354274527542720914A03BC
:101C500030914B0332272327322790924A058092F6
:101C6000490584E0E8E4F3E0ABE4B4E001900D92D0
:101C70008A95E1F7CACF4091480350914903542710
:101C80004527542720914A0330914B0332272327BD
:101C9000322790924A058092490584E0E8E4F3E017
:101CA000ABE4B4E001900D928A95E1F7C6CF809144
:101CB00070028F5F80937002853608F490CC21E02B
:101CC00020937E028CCC809180028F5F8093800273
:101CD000853608F416CD11E010937F0212CD0E94D4
:101CE0004306B7CBD8018D938D01E981FA813196F6
:101CF000FA83E983F2CD10924804C980DA808C0D12
:101D00009D1D9093470480934604960140E050E067
:101D100060E070E080E090E0A0905605B09057053C
:101D2000C0905805D0905905E0905A05F0905B0599
:101D300000915C0510915D050E947111209356057C
:101D400030935705409358055093590560935A05B1
:101D500070935B0580935C0590935D050E94FC0287
:101D60005B016C01E12CF12C87016983BA828B83C2
:101D7000DC82ED82FE820F83188760933E03B0926F
:101D80003F0380934003D09241031092420310928C
:101D90004303109244031092450363CB81EF8C0DF3
:101DA000823008F086CE0930110508F45ACBB09085
:101DB0004C03EB2CF12C9701275F3F4F3A8329838B
:101DC000A980BA800A151B0508F44BCB780122E0E4
:101DD000E21AF108B70186E493E00E940A02F801D2
:101DE000E05DFC4F3589F701E05DFC4F26898217E5
:101DF000930709F036CB552009F466CE81E09DCEDD
:101E0000EFEFEC0DE03108F054CEF0E08827E45F0E
:101E1000F04F8F4F0C946911310A310A310A310A9F
:101E20005F0D5F0D310A590D590D590D590D590DA1
:101E3000590D590DD30ED30E0E945E0F08F481E0A8
:101E40000895E89409C097FB3EF4909580957095AD
:101E500061957F4F8F4F9F4F9923A9F0F92F96E9F6
:101E6000BB279395F695879577956795B795F1116B
:101E7000F8CFFAF4BB0F11F460FF1BC06F5F7F4F08
:101E80008F4F9F4F16C0882311F096E911C077231A
:101E900021F09EE8872F762F05C0662371F096E823
:101EA000862F70E060E02AF09A95660F771F881FF2
:101EB000DAF7880F9695879597F90895990F000896
:101EC000550FAA0BE0E8FEEF16161706E807F9070C
:101ED000C0F012161306E407F50798F0621B730BA7
:101EE000840B950B39F40A2661F0232B242B252B28
:101EF00021F408950A2609F4A140A6958FEF811DCB
:101F0000811D08950E94950F0C9406100E94F80FF1
:101F100038F00E94FF0F20F0952311F00C94EF0F82
:101F20000C94F50F11240C943A100E94171070F3C2
:101F3000959FC1F3950F50E0551F629FF001729F6E
:101F4000BB27F00DB11D639FAA27F00DB11DAA1F7D
:101F5000649F6627B00DA11D661F829F2227B00DCA
:101F6000A11D621F739FB00DA11D621F839FA00D55
:101F7000611D221F749F3327A00D611D231F849FA5
:101F8000600D211D822F762F6A2F11249F575040FC
:101F90009AF0F1F088234AF0EE0FFF1FBB1F661F77
:101FA000771F881F91505040A9F79E3F510580F040
:101FB0000C94EF0F0C943A105F3FE4F3983ED4F387
:101FC000869577956795B795F795E7959F5FC1F7E4
:101FD000FE2B880F911D9695879597F9089597F98F
:101FE0009F6780E870E060E008959FEF80EC0895BF
:101FF00000240A94161617061806090608950024E8
:102000000A9412161306140605060895092E039461
:10201000000C11F4882352F0BB0F40F4BF2B11F4D5
:1020200060FF04C06F5F7F4F8F4F9F4F089557FD34
:102030009058440F551F59F05F3F71F04795880F36
:1020400097FB991F61F09F3F79F0879508951216CD
:1020500013061406551FF2CF4695F1DF08C0161679
:1020600017061806991FF1CF86957105610508942A
:102070000895E894BB2766277727CB0197F9089541
:10208000F999FECF92BD81BDF89A992780B5089540
:10209000262FF999FECF1FBA92BD81BD20BD0FB684
:1020A000F894FA9AF99A0FBE019608955058BB27F2
:1020B000AA270E946E100C9406100E94F80F38F0A8
:1020C0000E94FF0F20F039F49F3F19F426F40C947E
:1020D000F50F0EF4E095E7FB0C94EF0FE92F0E944B
:1020E000171058F3BA17620773078407950720F093
:1020F00079F4A6F50C9439100EF4E0950B2EBA2F56
:10210000A02D0B01B90190010C01CA01A0011124FD
:10211000FF27591B99F0593F50F4503E68F11A16A9
:10212000F040A22F232F342F4427585FF3CF46953A
:1021300037952795A795F0405395C9F77EF41F165C
:10214000BA0B620B730B840BBAF09150A1F0FF0F26
:10215000BB1F661F771F881FC2F70EC0BA0F621F12
:10216000731F841F48F4879577956795B795F79502
:102170009E3F08F0B0CF9395880F08F09927EE0F97
:102180009795879508950E94D7100C9406100E9489
:10219000FF0F58F00E94F80F40F029F45F3F29F03C
:1021A0000C94EF0F51110C943A100C94F50F0E94FF
:1021B000171068F39923B1F3552391F3951B550B31
:1021C000BB27AA2762177307840738F09F5F5F4F0A
:1021D000220F331F441FAA1FA9F335D00E2E3AF049
:1021E000E0E832D091505040E695001CCAF72BD061
:1021F000FE2F29D0660F771F881FBB1F26173707B2
:102200004807AB07B0E809F0BB0B802DBF01FF27E3
:1022100093585F4F3AF09E3F510578F00C94EF0FC2
:102220000C943A105F3FE4F3983ED4F3869577958B
:102230006795B795F7959F5FC9F7880F911D96959C
:10224000879597F90895E1E0660F771F881FBB1FF8
:10225000621773078407BA0720F0621B730B840BA5
:10226000BA0BEE1F88F7E09508950E941F1088F0C2
:102270009F5798F0B92F9927B751B0F0E1F0660F4A
:10228000771F881F991F1AF0BA95C9F714C0B1308B
:1022900091F00E943910B1E008950C943910672F25
:1022A000782F8827B85F39F0B93FCCF386957795BA
:1022B0006795B395D9F73EF49095809570956195A3
:1022C0007F4F8F4F9F4F08950E945E0F08F48FEF4E
:1022D0000895EE0FFF1F881F8BBF0790F691E02D2A
:1022E00019942A0D3B1D4C1D5D1D6E1D7F1D801F09
:1022F000911F08952A193B094C095D096E097F0950
:10230000800B910B08952A153B054C055D056E0564
:102310007F058007910708950F931F93CF93DF9355
:102320008230910510F482E090E0E0916005F09138
:10233000610530E020E0B0E0A0E0309799F421158D
:10234000310509F44AC0281B390B24303105D8F572
:102350008A819B816115710589F1FB0193838283D9
:10236000FE0111C040815181028113814817590734
:10237000E0F04817590799F4109761F012960C9302
:10238000129713961C933296CF01DF91CF911F9134
:102390000F9108950093600510936105F4CF211506
:1023A000310551F04217530738F0A901DB019A01BA
:1023B000BD01DF01F801C1CFEF01F9CF90936105B5
:1023C00080936005CDCFFE01E20FF31F81939193BF
:1023D0002250310939832883D7CF20915E0530916F
:1023E0005F05232B41F420910702309108023093BE
:1023F0005F0520935E0520910502309106022115AC
:10240000310541F42DB73EB74091090250910A02BF
:10241000241B350BE0915E05F0915F05E217F30791
:10242000A0F42E1B3F0B2817390778F0AC014E5F44
:102430005F4F2417350748F04E0F5F1F50935F051D
:1024400040935E05819391939FCFF0E0E0E09CCFB5
:10245000CF93DF930097E9F0FC0132971382128249
:10246000A0916005B0916105ED0130E020E010978A
:10247000A1F420813181820F931F20915E0530915C
:102480005F052817390709F061C0F0935F05E093F5
:102490005E05DF91CF910895EA01CE17DF07E8F5D9
:1024A0004A815B819E0141155105B1F7E901FB832A
:1024B000EA8349915991C40FD51FEC17FD0761F4C8
:1024C000808191810296840F951FE9019983888309
:1024D000828193819B838A83F0E0E0E012968D9164
:1024E0009C9113970097B9F52D913C911197CD01CF
:1024F0000296820F931F20915E0530915F05281789
:10250000390739F6309751F5109261051092600540
:10251000B0935F05A0935E05BCCFD383C283408197
:102520005181840F951FC817D90761F44E5F5F4F23
:1025300088819981480F591F518340838A819B81EB
:10254000938382832115310509F0B0CFF0936105A3
:10255000E09360059ECFFD01DC01C0CF13821282A3
:06256000D7CFF894FFCF75
:10256600010000C84100006205800000000000D69E
:0E2576000540056D0523069E057C05900500B9
:00000001FF
