:020000040000FA
:100000000C945D000C9485000C9485000C94850084
:100010000C9485000C9485000C9485000C9485004C
:100020000C9485000C9485000C9485000C9485003C
:100030000C9485000C9485000C9485000C9485002C
:100040000C945F0B0C9485000C94CF0B0C94A90BB3
:100050000C9485000C9485000C9485000C9485000C
:100060000C94010C0C948500000000002400270073
:100070002A0000000000250028002B0004040404CE
:100080000404040402020202020203030303030342
:10009000010204081020408001020408102001021F
:1000A00004081020000000080002010000030407FB
:1000B0000000000000000000200D11241FBECFEF43
:1000C000D8E0DEBFCDBF11E0A0E0B1E0E4EFF0E3A7
:1000D00002C005900D92A033B107D9F725E0A0E347
:1000E000B1E001C01D92A534B207E1F710E0CDE503
:1000F000D0E004C02197FE010E943217CC35D10711
:10010000C9F70E94B60D0C9478180C940000209149
:100110002803263051F4892BF1F480912B03909120
:100120002C0398278927982708952031A1F4FC01F2
:10013000EE0FFF1F379680912704909128040297B5
:10014000E817F90740F4EF5EFC4F86899789892705
:1001500098278927089590E080E00895BF92CF9274
:10016000DF92EF92FF920F931F93CF93DF93082FAD
:100170007A01690110E08FE0B82EC62FD0E0CC0FD5
:10018000DD1F80911503181708F04DC0A0911303CF
:10019000B09114031B9DA00DB11D1124FD01EC0FA6
:1001A000FD1F0190F081E02D011119C0309799F0E9
:1001B00020913F05309140058091270490912804BB
:1001C000049758F080912904811107C08091280379
:1001D000A601B70109951F5FD4CF80E0F9CF1E9625
:1001E0008C910813F8CF309701F120913F053091A1
:1001F00040058091270490912804049790F0809105
:10020000290481110EC080912803A601B701DF9156
:10021000CF911F910F91FF90EF90DF90CF90BF9003
:10022000099480E0F2CF85E0011181E0DF91CF9168
:100230001F910F91FF90EF90DF90CF90BF900895A6
:10024000AC01FC018FEF9FEF9F01241B350B26179C
:1002500037079CF42191822728E030E0DC01A1706F
:10026000BB2796958795AB2B21F0A1E08A27A0EAC2
:100270009A272150310991F7E7CF089590E0FC01CA
:10028000EC55FF4F2491FC01E057FF4F3491FC01E6
:10029000E458FF4FE491EE23C9F0222339F02330D4
:1002A00001F1A8F4213019F1223029F1F0E0EE0F2C
:1002B000FF1FEE58FF4FA591B4918FB7F894EC91C2
:1002C000611126C030953E233C938FBF089527309F
:1002D000A9F02830C9F0243049F7809180008F7D43
:1002E00003C0809180008F7780938000DFCF84B53A
:1002F0008F7784BDDBCF84B58F7DFBCF8091B0003D
:100300008F778093B000D2CF8091B0008F7DF9CFEE
:100310003E2BDACF3FB7F8948091E9019091EA0142
:10032000A091EB01B091EC0126B5A89B05C02F3F31
:1003300019F00196A11DB11D3FBFBA2FA92F982F0B
:100340008827BC01CD01620F711D811D911D42E006
:10035000660F771F881F991F4A95D1F708952F922E
:100360003F924F925F926F927F928F929F92AF9245
:10037000BF92CF92DF92EF92FF920F931F93CF9392
:10038000DF93C0912D05D0912E05209749F48091DF
:100390002A0590912B05049718F081E080932C0595
:1003A00080912C05882371F0809127049091280476
:1003B000049740F180912904811124C08091270382
:1003C000811120C010922C0510922E0510922D053F
:1003D00010922B0510922A05D0E0C0E0CE01DF91EB
:1003E000CF911F910F91FF90EF90DF90CF90BF9032
:1003F000AF909F908F907F906F905F904F903F90C5
:100400002F900895209709F04BC00E948A019B010C
:10041000AC0160E070E080E090E0A0901F03B0903D
:100420002003C0902103D0902203E0902303F0909A
:10043000240300912503109126030E944117E091A7
:100440001D03F0911E031F01220C331C2E0E3F1EB4
:100450005101C12CD12CE12CF12C00E010E00E94C4
:100460004A1709F008F4BACFC0912A05D0912B059C
:100470008E0102501109B8018AE294E00E94200125
:10048000F801E65DFB4F8083C75DDB4F9883809169
:100490001B0390911C0397FD03C061E00E943E0185
:1004A0008091190390911A03181619060CF0F0C0E8
:1004B0008091170390911803DC01ED91FC91048069
:1004C000F581E02D0995C0912A05D0912B05209149
:1004D0002D0530912E05C21BD30B8C179D0760F4A0
:1004E0008091170390911803DC01ED91FC91048039
:1004F000F581E02D0995EC01209709F446C0809123
:1005000017039091180360912D0570912E05665D7B
:100510007B4FDC01ED91FC910280F381E02DAE0177
:100520000995EC0180912D0590912E058C0F9D1F52
:1005300090932E0580932D059E0140E050E060E0F1
:1005400070E080E090E0A0902F05B0903005C09062
:100550003105D0903205E0903305F09034050091DC
:100560003505109136050E94381720932F053093DA
:1005700030054093310550933205609333057093F5
:10058000340580933505909336058091170390913B
:100590001803DC01ED91FC910480F581E02D0995B3
:1005A0002091190330911A0382179307ACF40E942B
:1005B0008A014B015C0160931F039092200380939A
:1005C0002103B0922203109223031092240310926D
:1005D00025031092260302CF8091170390911803F0
:1005E000DC01ED91FC910680F781E02D0995D0E0CA
:1005F000C0E020912D0530912E0580912A05909123
:100600002B052817390708F4E9CE0E948A019B01BF
:10061000AC0160E070E080E090E0A0901F03B0903B
:100620002003C0902103D0902203E0902303F09098
:10063000240300912503109126030E944117E091A5
:100640001D03F0911E031F01220C331C2E0E3F1EB2
:100650005101C12CD12CE12CF12C00E010E00E94C2
:100660004A1709F008F4BACE80911B0390911C033D
:1006700097FD03C060E00E943E0110922C0510928D
:100680002E0510922D0510922B0510922A05A6CE4C
:10069000C0912A05D0912B0580912D0590912E05B2
:1006A000C81BD90BD1F08091170390911803DC017E
:1006B000ED91FC910280F381E02DAE016AE274E0DD
:1006C0000995EC018091170390911803DC01ED91DD
:1006D000FC910680F781E02D099580912D05909180
:1006E0002E058C0F9D1F90932E0580932D059E0146
:1006F00040E050E060E070E080E090E0A0902F05E6
:10070000B0903005C0903105D0903205E0903305AF
:10071000F090340500913505109136050E94381788
:1007200020932F05309330054093310550933205C7
:1007300060933305709334058093350590933605A7
:1007400058CF8F929F92AF92BF92CF92DF92EF924B
:10075000FF924B015C010E948A016B017C010E94A7
:100760008A016C197D098E099F09683E73408105D5
:100770009105A8F321E0821A9108A108B10888EE3A
:10078000C80E83E0D81EE11CF11C81149104A10461
:10079000B10429F7FF90EF90DF90CF90BF90AF901A
:1007A0009F908F90089520916D02211140C0803656
:1007B000910549F178F480329105D9F080349105A2
:1007C000E9F0892B09F061C062E870E080E090E018
:1007D0000C94A103803A9105D9F020F4803891055A
:1007E00091F10895803C9105C1F0803E9105D1F0D2
:1007F000089561E470E080E090E0EACF60E270E0AC
:1008000080E090E0E5CF60E170E080E090E0E0CF54
:1008100064E070E080E090E0DBCF63E070E080E0D7
:1008200090E0D6CF62E070E080E090E0D1CF8036FB
:10083000910511F168F480329105C9F08034910579
:1008400089F3892B11F568E070E080E090E0C0CF7B
:10085000803A9105D9F020F48038910591F00895FF
:10086000803C9105B1F0803E910599F0089565E0D6
:1008700070E080E090E0ACCF61E070E080E090E07C
:10088000A7CF87E89AE00197F1F7089583E097E012
:10089000FACF83E295E0F7CF2FB7F8946091E501A6
:1008A0007091E6018091E7019091E8012FBF0895D2
:1008B00008950895AF92BF92CF92DF92EF92FF9288
:1008C0000F931F93CF93DF936C017B018B01040F78
:1008D000151FEB015E01AE18BF08C017D10759F014
:1008E0006991D601ED91FC910190F081E02DC60156
:1008F0000995892B79F7C501DF91CF911F910F9150
:10090000FF90EF90DF90CF90BF90AF900895FC01E3
:10091000538D448D252F30E0842F90E0821B930B64
:10092000541710F0CF96089501970895FC01918D0A
:10093000828D981761F0A28DAE0FBF2FB11D5D960D
:100940008C91928D9F5F9F73928F90E008958FEFAF
:100950009FEF0895FC01918D828D981731F0828D63
:10096000E80FF11D858D90E008958FEF9FEF0895BA
:10097000FC01918D228D892F90E0805C9F4F821B1E
:1009800091098F739927089584E792E00E94B80433
:1009900021E0892B09F420E0822F089580E090E087
:1009A000892B29F00E94C40481110C940000089541
:1009B000FC01A48DA80FB92FB11DA35ABF4F2C91D4
:1009C000848D90E001968F739927848FA689B789CB
:1009D0002C93A089B1898C91837080648C93938DC2
:1009E000848D981306C00288F389E02D80818F7D65
:1009F00080830895EF92FF920F931F93CF93DF931D
:100A0000EC0181E0888F9B8D8C8D98131AC0E8894A
:100A1000F989808185FF15C09FB7F894EE89FF8919
:100A20006083E889F98980818370806480839FBFB7
:100A300081E090E0DF91CF911F910F91FF90EF90B7
:100A40000895F62E0B8D10E00F5F1F4F0F731127C7
:100A5000E02E8C8D8E110CC00FB607FCFACFE88902
:100A6000F989808185FFF5CFCE010E94D804F1CFAE
:100A7000EB8DEC0FFD2FF11DE35AFF4FF0829FB776
:100A8000F8940B8FEA89FB8980818062CFCFCF9366
:100A9000DF93EC01888D8823B9F0AA89BB89E889A6
:100AA000F9898C9185FD03C0808186FD0DC00FB64C
:100AB00007FCF7CF8C9185FFF2CF808185FFEDCFCA
:100AC000CE010E94D804E9CFDF91CF910895209103
:100AD0005101260F3327331F21323105ECF42091C9
:100AE0003502FC0190E080E0243069F082E0089556
:100AF000A09151012191AC014F5C5E4FA40FB52F25
:100B0000B11D2C930196861798F380915101680FBF
:100B10006093510180E0089581E0089510923502BC
:100B200081E08093340210920F0261E082E10E9422
:100B30003E0161E083E10E943E01E9EBF0E080814B
:100B40008E7F808380818D7F808388E48093B8004E
:100B500085E48093BC000895CF93DF9391E0909358
:100B600030018823B9F0C091B800D091BA008091CB
:100B7000BC008A7B8093BC0060E082E10E943E0161
:100B800060E083E10E943E010E948E05D093BA008E
:100B9000C093B800DF91CF9108958F929F92AF924A
:100BA000BF92CF92DF92EF92FF920F931F93CF935A
:100BB000DF93D0915E02D13208F0D7C0182FC091D8
:100BC0005D020E948A016B017C01809135028111D6
:100BD0006BC082E080933502109334028FEF8093D4
:100BE000330210923202D0933102ADE3B2E0E1E180
:100BF000F2E080E0D81391C01092100280911002B0
:100C0000CC0FC82BC093100280910F02813009F0E5
:100C100088C010920F020E948A016B017C018091B2
:100C200010028093BB008091370290913802A0910E
:100C30003902B0913A02892B8A2B8B2BA1F00E94AA
:100C40008A010091370210913802209139023091C7
:100C50003A026C197D098E099F09061717072807A4
:100C6000390708F442C08091BC0083FDD8CF85ECE1
:100C70008093BC000E948A016B017C018091350247
:100C8000823009F450C0809133028F3F09F46FC065
:100C900080913302803209F46CC08091330280333A
:100CA00009F469C084E026C080913702909138022F
:100CB000A0913902B0913A02892B8A2B8B2B09F42F
:100CC00084CF0E948A018090370290903802A090D1
:100CD0003902B0903A026C197D098E099F09861677
:100CE0009706A806B90608F070CF809136020E94D8
:100CF000AC0585E010923C0210925E0210923B021D
:100D0000DF91CF911F910F91FF90EF90DF90CF90E7
:100D1000BF90AF909F908F9008959D9191938F5F1A
:100D200069CF85EEA5CF8091370290913802A091CE
:100D30003902B0913A02892B8A2B8B2B09F49ECF72
:100D40000E948A01009137021091380220913902E5
:100D500030913A026C197D098E099F090617170711
:100D60002807390708F08ACFC0CF81E0C3CF80E0E1
:100D7000C1CF82E0BFCF83E0BDCF0F931F93CF934E
:100D8000DF93162F072FCBE6D2E0A881B9819F8190
:100D900021E020933B0290935D0210923C0210925E
:100DA0005E02ED91FC9111970190F081E02D682F8A
:100DB000CD01099588819981DC01ED91FC9101902B
:100DC000F081E02D602F099588819981DC01ED91FA
:100DD000FC910190F081E02D612F099581E0DF9178
:100DE000CF911F910F910C94CD050895E091EE01E4
:100DF0008091ED01E81730F4F0E0E151FE4F808181
:100E000090E008958FEF9FEF08959091EE0180910B
:100E1000ED012FEF3FEF981748F4E92FF0E0E15193
:100E2000FE4F208130E09F5F9093EE01C90108954D
:100E30008091ED019091EE01891B990B0895CF925D
:100E4000DF92EF92FF920F931F93CF93DF937C017A
:100E5000CB018A0120913B02222389F0EB016B0137
:100E6000C40ED51ECC15DD0569F06991D701ED9151
:100E7000FC910190F081E02DC7010995F3CF642F1B
:100E80000E946705C801DF91CF911F910F91FF90DC
:100E9000EF90DF90CF900895CF93DF931F92CDB75F
:100EA000DEB7698320913B022223F9F020915E0294
:100EB000203258F021E030E0FC013383228390E0BF
:100EC00080E00F90DF91CF91089580913C02E82F50
:100ED000F0E0E35CFD4F998190838F5F80933C024B
:100EE00080935E0281E090E0ECCF61E0CE0101965C
:100EF0000E946705F7CF90E080E008951F93CF939D
:100F0000DF93EA016531710598F59B01240F351FC8
:100F10002531310568F5509128035350A0912A05D9
:100F2000B0912B051297CC0FDD1F660F771F90E055
:100F300080E08C179D0709F15230C0F49C012B5FB3
:100F40003F4FA217B30790F0FB01E80FF91FEF54D2
:100F5000FE4F408111819C012F5E3C4FF901E45E00
:100F6000FE4F1083235E3E4FF90140830296E1CF8E
:100F700082E0DF91CF911F91089580E0FACF1F9317
:100F8000CF93DF93EA016531710598F59B01240F3A
:100F9000351F2531310568F5509128035350A09134
:100FA0002A05B0912B051297CC0FDD1F660F771F16
:100FB00090E080E08C179D0709F15230C0F49C014D
:100FC0002B5F3F4FA217B30790F0FB01E80FF91F0B
:100FD000E858FE4F408111819C012F5E3C4FF90182
:100FE000E45EFE4F1083235E3E4FF901408302967C
:100FF000E1CF82E0DF91CF911F91089580E0FACF99
:10100000CF92DF92EF92FF920F931F93CF93A09115
:101010006B02B0916C029091720221E020933B022E
:1010200090935D0210923C0210925E02ED91FC9151
:1010300011970190F081E02D682FCD01099580E096
:101040000E94CD05C09172020E948A016B017C0151
:1010500080913502811165C081E0809335028093D3
:1010600034029FEF90933302109232028093310248
:101070008093100280911002CC0FC82BC0931002F5
:1010800080910F02813009F0AAC010920F020E94D5
:101090008A016B017C01809110028093BB008091DA
:1010A000370290913802A0913902B0913A02892B0F
:1010B0008A2B8B2BA1F00E948A010091370210919C
:1010C00038022091390230913A026C197D098E095B
:1010D0009F09061717072807390708F443C08091AE
:1010E000BC0083FDD8CF85EC8093BC000E948A01B0
:1010F0006B017C0180913502813009F472C08091CE
:101100003202823008F08FC080913202E1E1F2E0D9
:10111000AFEEB1E090E0981751F121912D939F5FD0
:10112000FACF8091370290913802A0913902B091A4
:101130003A02892B8A2B8B2B09F48ACF0E948A01D1
:1011400000913702109138022091390230913A0211
:101150006C197D098E099F0906171707280739079B
:1011600008F076CF809136020E94AC0580E01092A4
:10117000EE018093ED0180916B0290916C02DC0195
:10118000ED91FC910084F185E02D0995892B09F4FE
:101190004CC080916B0290916C02DC01ED91FC914E
:1011A0000284F385E02D0995C82F80916B02909100
:1011B0006C02DC01ED91FC910284F385E02D099530
:1011C0002C2F30E0322F2227820F932F911DCF91A9
:1011D0001F910F91FF90EF90DF90CF90089585EED3
:1011E00083CF8091370290913802A0913902B0915B
:1011F0003A02892B8A2B8B2B09F47CCF0E948A011F
:1012000000913702109138022091390230913A0250
:101210006C197D098E099F090617170728073907DA
:1012200008F068CF9FCF82E071CF80E0C0E0C8CFE8
:10123000CF93DF93EC0181E00E940008D09371020C
:10124000C09370029E77BE01682B792B81E0DF91FD
:10125000CF910C94BD064F925F926F927F928F92C6
:101260009F92AF92BF92EF92FF920F931F93CF93F3
:10127000DF93EC01A0906E02B0906F0281E00E94BB
:1012800000088C0180E091E00E941809C11584E0FB
:10129000D80709F4A1C058F52097D1F1C11582E013
:1012A000D807E9F1C801892F992786958770992772
:1012B0008C179D07D1F5B80171776C2B7D2B81E0E0
:1012C0000E94BD0681E00E940008807E9927DF9180
:1012D000CF911F910F91FF90EF90BF90AF909F9093
:1012E0008F907F906F905F904F900C94D303C115B7
:1012F00088E0D80709F473C0C1158AE0D80709F45B
:1013000071C0C11586E0D80769F680E094E009C095
:1013100080E098E190936F0280936E02C3CF80E0EB
:1013200090E190936F0280936E02C80183709927B9
:10133000039709F283E00E9400087C01B50190E068
:1013400080E00E94E3144B015C0160916E02709199
:101350006F0290E080E00E94E3149B01AC01C501A4
:10136000B4010E9485162B013C01B701FF0C880BCC
:10137000990B0E94E5149B01AC01C301B2010E94CC
:1013800044150E94F71683E00E94BD0682E00E9489
:1013900000087C0160916E0270916F0290E080E025
:1013A0000E94E3149B01AC01C501B4010E948516A3
:1013B0004B015C01B701FF0C880B990B0E94E514EF
:1013C0009B01AC01C501B4010E9444150E94F716AF
:1013D00082E00E94BD066FCF80E098E0A2CF80E05F
:1013E00092E09FCF80E091E09CCF0F931F93CF932B
:1013F000DF9381E00E9400088C0190E080E00E9471
:101400002B0980917002909171028115914059F4DD
:1014100090E080E00E94180981E00E940008807E30
:1014200099270E94D30380E00E940008892BC1F114
:1014300080E00E940008811520E8920711F481E005
:1014400090E897FF03C0919581959109C0E0DAE09B
:10145000853424E09207CCF0C0E0D8E0893828E059
:1014600092079CF0C0E0D6E0823121E192076CF057
:10147000C0E0D4E0823222E292073CF0C0E0D2E049
:101480008434944414F0D0E0C0E0B80181E00E94BC
:10149000BD06CE01DF91CF911F910F910C942B09C6
:1014A00080E00E940008919581959109C4CF80E069
:1014B0000E94000820917302222349F151E040E884
:1014C000811520E8920711F0582F492F252F342F2E
:1014D00037FF03C0319521953109273646E6340799
:1014E00064F020916E0230916F022115384179F03D
:1014F0000E94F50980E00C940008283436423CF440
:1015000020916E0230916F022115314089F70895C4
:1015100081E00E940008BC01706881E00C94BD0667
:10152000CF93DF93EC0181E00E9400089F70C82BED
:10153000D92BBE0181E00E94BD06D0FD0EC081E026
:101540000E940008EC01C07EDD27CE010E94D3037B
:10155000CE01DF91CF910C94D303DF91CF91089509
:101560009FEF980F973F08F081E0682F81E090E0AF
:101570000C940A16EF92FF920F931F93CF93DF9371
:101580008B017A01D0E0C0E0CE15DF0509F455C02B
:101590000115110511F5CE010E9487009C01215013
:1015A0003109273F310508F050C02091000128176C
:1015B000190679F0809300010E94B00A8091000121
:1015C0009FEF980F973F28F4E0911303F0911403D5
:1015D000868721960F5F1F4FD7CF01301105B1F4D9
:1015E000CE010E9487008536910578F52091A101F2
:1015F0002817190671F3682F8093A101853608F02A
:1016000060E082E090E00E940A16E3CF023011050C
:1016100001F7CE010E94870085369105B0F4209134
:10162000A00128171906A9F2682F8093A00185361A
:1016300008F060E083E090E0E6CF80E0DF91CF91BA
:101640001F910F91FF90EF90089583E0F7CF85ED04
:101650008093BC008091370290913802A0913902AA
:10166000B0913A020796A11DB11D23E0B695A7954A
:10167000979587952A95D1F72091BC0024FD03C04A
:1016800010923502089540913702509138026091CE
:10169000390270913A02452B462B472B69F300978C
:1016A000A105B10541F02AE22A95F1F700C00197A2
:1016B000A109B109E1CF809136020C94AC051F92CB
:1016C0000F920FB60F9211242F933F938F939F93F6
:1016D000AF93BF938091E5019091E601A091E7015E
:1016E000B091E8013091E40123E0230F2D3758F544
:1016F0000196A11DB11D2093E4018093E501909313
:10170000E601A093E701B093E8018091E90190918F
:10171000EA01A091EB01B091EC010196A11DB11D70
:101720008093E9019093EA01A093EB01B093EC015F
:10173000BF91AF919F918F913F912F910F900FBECD
:101740000F901F90189526E8230F0296A11DB11D3A
:10175000D2CF1F920F920FB60F9211242F933F9367
:101760004F935F936F937F938F939F93AF93BF93A9
:10177000EF93FF9384E792E00E94D804FF91EF91EA
:10178000BF91AF919F918F917F916F915F914F9199
:101790003F912F910F900FBE0F901F9018951F92A1
:1017A0000F920FB60F9211242F938F939F93EF9365
:1017B000FF93E0918402F09185028081E0918A029A
:1017C000F0918B0282FD1BC0908180918D028F5F12
:1017D0008F7320918E02821741F0E0918D02F0E02C
:1017E000EC58FD4F958F80938D02FF91EF919F9163
:1017F0008F912F910F900FBE0F901F9018958081A1
:10180000F4CF1F920F920FB60F9211242F933F9394
:101810004F935F936F937F938F939F93AF93BF93F8
:10182000EF93FF938091B900887F803609F44AC016
:10183000F0F5883209F4A7C018F5803109F49BC08F
:10184000B8F4882309F4F9C0883009F494C0FF91F2
:10185000EF91BF91AF919F918F917F916F915F9128
:101860004F913F912F910F900FBE0F901F901895A1
:10187000883109F488C0803251F78093330214C054
:10188000803409F49DC040F48033B9F38833F9F60D
:101890008093330285ECB0C0803509F485C088356B
:1018A00009F496C0883499F60E94270BD0CF883966
:1018B00009F48CC038F5883729F050F4883611F0D7
:1018C000803729F683E0809335021092730157C068
:1018D000883809F47BC0803919F0803809F0B7CF17
:1018E00080917301803208F071C0E091730181E052
:1018F0008E0F809373018091BB00F0E0ED5AFE4F94
:1019000080833DC0803B39F0E0F4803A09F479C02F
:10191000883A09F09CCF84E08093350210925201FE
:1019200010925101E0917601F09177010995809133
:10193000510181110FC081E080935101109231015A
:1019400009C0803C09F4A6CF883C09F4A3CF883BAA
:1019500009F07DCFE091520181E08E0F809352011A
:10196000F0E0EF5CFE4F80818093BB0090915201CC
:101970008091510129C0809110028093BB0085ECB9
:101980008093BC0064CF909132028091310298170D
:1019900058F5E091320281E08E0F80933202F0E040
:1019A000EF5EFD4F8081E9CFE091320281E08E0F42
:1019B000809332028091BB00F0E0EF5EFD4F8083A8
:1019C00090913202809131029817C8F285E8D8CF01
:1019D000E091320281E08E0F809332028091BB0051
:1019E000F0E0EF5EFD4F80838091340281115CCF87
:1019F00081E080930F0284EA8093BC00109235024C
:101A000026CF85EC8093BC00109235028091730143
:101A1000803230F4E0917301F0E0ED5AFE4F108215
:101A20006091730170E0E0917401F091750183E5BC
:101A300091E00995109273010ACF1092330234CFCE
:101A40000F931F93CF93DF93C4E7D2E01B821A82D8
:101A500088EE93E0A0E0B0E08C839D83AE83BF83EB
:101A60002FE031E03983288325EC30E03D872C8757
:101A700024EC30E03F872E8720EC30E0398B288B38
:101A800021EC30E03B8B2A8B22EC30E03D8B2C8B21
:101A900026EC30E03F8B2E8B198E1A8E1B8E1C8EFF
:101AA0000FE512E0F8011382128284839583A683E6
:101AB000B78381E291E0918380838FE090E00E9480
:101AC000531721E0FC012687A1E1B3E013969C9314
:101AD0008E93129714962C93149715962C93159712
:101AE0001796DC93CE93169720E430E019963C933A
:101AF0002E9318971092280410922704109229040C
:101B000010922B0510922A0510922C0510922E058A
:101B100010922D05EFE2F5E01082118212821382FD
:101B20001482158216821782E7E3F5E01082118293
:101B30001282138214821582168217821092400537
:101B400010923F0511969C938E9384E090E01B9633
:101B50009C938E931A97EBE6F2E01183008388E45E
:101B60008783DF91CF911F910F910895CF93DF93DA
:101B7000CDB7DEB728970FB6F894DEBF0FBECDBF46
:101B8000789484B5826084BD84B5816084BD85B558
:101B9000826085BD85B5816085BD80916E00816064
:101BA00080936E001092810080918100826080930A
:101BB000810080918100816080938100809180000C
:101BC0008160809380008091B10084608093B10037
:101BD0008091B00081608093B00080917A00846031
:101BE00080937A0080917A00826080937A0080915D
:101BF0007A00816080937A0080917A008068809377
:101C00007A001092C10088E198E20FB6F894A89586
:101C1000809360000FBE909360001092EE011092CE
:101C2000ED0110923C0210925E020E948E0588E542
:101C300094E0909377018093760189E594E0909306
:101C4000750180937401E0918402F091850282E035
:101C50008083E0918002F09181021082E091820203
:101C6000F091830287E6808310928C02E0918802D3
:101C7000F091890286E08083E0918602F0918702EC
:101C8000808180618083E0918602F091870280816B
:101C900088608083E0918602F0918702808180686D
:101CA0008083E0918602F091870280818F7D80831E
:101CB00080911B0390911C0397FD23C09927FC0181
:101CC000E057FF4F249184589F4FFC018491882353
:101CD00099F090E0880F991FFC01E859FF4FA591FA
:101CE000B491FC01EE58FF4F859194918FB7F89411
:101CF000EC91E22BEC938FBF60E080911B030E947C
:101D00003E01E0911703F0911803148215821682A8
:101D100017828091170390911803DC01ED91FC91DB
:101D20000680F781E02D09958091170390911803A3
:101D3000DC01ED91FC910480F581E02D09959093F3
:101D40001A038093190384E091E090931E0380931B
:101D50001D030E948A0140911D0350911E03E7E07C
:101D6000E49F9001E59F300D1124DC01CB01820F2F
:101D7000931FA11DB11D5C016D01E12CF12C8701A8
:101D80008983BA82AB83DC82ED82FE820F8318875F
:101D900080931F03B0922003A0932103D0922203CB
:101DA000109223031092240310922503109226030D
:101DB0001092280410922704E0911103F09112036D
:101DC0008FEB97E0958384838AEB9AE093878287F1
:101DD0008EE797E09783868310926D02809172025E
:101DE000BB24B394B0923B0280935D0210923C02FC
:101DF00010925E0281E00E94CD058111EDCF63E873
:101E000075E881E00E94BD0680E094E00E942B0905
:101E100060E070E882E00E94BD066FEF7FE783E03C
:101E20000E94BD0680E091E0909371028093700261
:101E30001092730280E092E00E942B0990E080E013
:101E40000E940216803391F581E090E00E94021614
:101E500089838150873F08F057C019811093000192
:101E600082E090E00E940216853608F080E08093C0
:101E7000A10183E090E00E940216853608F080E020
:101E80008093A001E0911303F0911403A980A6862A
:101E900005E0602E712C88E0882E912CA89550903A
:101EA0002C055520B1F10E94AF016FC3CC24C3941F
:101EB000C09200011092A1011092A00160E390E095
:101EC00080E00E940A16809100010E94B00A609191
:101ED000A1016536E0F482E090E00E940A1660916C
:101EE000A001653608F060E083E090E00E940A16E9
:101EF000809100019FEF980F973F50F6E0911303F8
:101F0000F09114038687C4CF01E00983A6CF60E077
:101F1000E2CF8091170390911803DC01ED91FC91C1
:101F20000084F185E02D099520912904892B09F47D
:101F3000BFC0211144C00E948A019B01AC0160E036
:101F400070E080E090E0A0901F03B0902003C0906C
:101F50002103D0902203E0902303F090240300910A
:101F60002503109126030E944117A0911D03B091F3
:101F70001E03FD01EE0FFF1FEA0FFB1F5F01D12CB7
:101F8000C12CE12CF12C8701E983BA82CB82DC825F
:101F9000ED82FE820F831887C12CD12CE12CF12C0D
:101FA00000E010E00E944A1709F008F475C0109292
:101FB000280410922704BB24B394B0922904809182
:101FC0002904882309F4C2C200912704109128042F
:101FD0000115B1E01B0711F410922904C12CDD2476
:101FE000D394C01AD10AE0901703F0901803095D4A
:101FF0001C4F1A821982A980BA80CA14DB0439F1F5
:102000000E944C04D70118966D937D938D939C93F9
:102010001B97D701ED91FC910284F385E02DC70158
:10202000099597FF57C20E944C04F701208531851E
:1020300042855385621B730B840B950B248135817C
:1020400046815781621773078407950710F38091C3
:10205000270490912804009709F047C2A980BA800C
:10206000AB2809F442C250912703552309F43DC21D
:1020700060911503209113033091140340E064171D
:1020800009F431C2215F3F4FF90131977081571731
:1020900009F42BC24F5FF3CF80911703909118037F
:1020A000DC01ED91FC910284F385E02D099587CF49
:1020B000222309F46AC20E948A019B01AC0160E0FC
:1020C00070E080E090E0A0901F03B0902003C090EB
:1020D0002103D0902203E0902303F0902403009189
:1020E0002503109126030E944117A0911D03B09172
:1020F0001E03FD01EE0FFF1FEA0FFB1F5F01D12C36
:10210000C12CE12CF12C8701E983BA82CB82DC82DD
:10211000ED82FE820F831887C12CD12CE12CF12C8B
:1021200000E010E00E944A1709F008F42EC2109255
:10213000290400912704109128040430110508F4A3
:1021400024C220911603222309F41FC2D090270332
:10215000DD2091F0409115038091130390911403B9
:1021600030E0431709F411C20F96FC0131975081FA
:10217000D51611F03F5FF5CF40902803CC24CA94C8
:10218000C40CFFE0BF2EBC14D0F0EC2DF0E0E55302
:10219000FF4E0C943217E510E510E510E5103711ED
:1021A0003711DB10DF10DF10DF10DF10DF10DF1062
:1021B000DF102A112A1120E0DD2009F4E6C1522E99
:1021C00024E030E03A8329830DC0DD2009F4DDC12D
:1021D00028E030E03A832983A980BA800A151B05DC
:1021E00008F4D3C1780122E0E21AF108B70187E2CE
:1021F00093E00E942001F801EF5EFC4F3589F70162
:10220000EF5EFC4F26898217930709F0BEC1ACE24E
:10221000B4E0EEEF1D92EA95E9F7D0922A044092DD
:102220002B04E4E0AE2EB12CB0922B05A0922A052F
:10223000552011F1DD2009F4A8C170922B056092A0
:102240002A05842D806880932B04BB24B394B0921C
:102250002C0429CE0930110508F497C130912D03C3
:10226000432F50E0475F5F4F5A834983B5CF68E003
:1022700070E07A836983B0CFE980FA80F092280415
:10228000E09227048D2D90E07FE0F72EFC1408F4F7
:10229000FAC0EC2DF0E0E15BFE4E0C9432178D118C
:1022A0008D11B911B911DB11F3115F1143124312F2
:1022B000431243124312431243120B122712892B6B
:1022C00009F4E1C070922B0560922A0528E030E005
:1022D00050E040E066E08D2D0E94AE00882309F4B6
:1022E000E2CD20912704309128042430310548F0B4
:1022F00090912904911105C090912703992309F425
:1023000044C170922B0560922A0590912B0490682D
:1023100090932B0480932C04C6CD892B09F4B3C071
:102320004091290350912A0354274527542720918F
:102330002B0330912C03322723273227B9016770F2
:102340007727E1E0672B09F4E0E0C90163E09695A7
:1023500087956A95E1F78E0F80932C0490E005969F
:1023600090932B0580932A0561E04612B4CF60E07C
:10237000B2CF892B09F487C04091290350912A03D9
:1023800054274527542720912B0330912C033227C3
:1023900023273227822F880F80932C0490E0059604
:1023A00090932B0580932A0503E062E0401609F420
:1023B00092CF63E090CF4091290350912A03542794
:1023C0004527542790922B0580922A0584E0E9E264
:1023D000F3E0ACE2B4E001900D928A95E1F721E0E0
:1023E00030E064E078CF4091290350912A035427CC
:1023F0004527542790922B0580922A0584E0E9E234
:10240000F3E0ACE2B4E001900D928A95E1F721E0AF
:1024100030E065E060CF4091290350912A035427B2
:102420004527542720912B0330912C033227232753
:10243000322790922B0580922A0584E0E9E2F3E0AE
:10244000ACE2B4E001900D928A95E1F7CACF4091D9
:10245000290350912A0354274527542720912B0301
:1024600030912C0332272327322790922B0580921C
:102470002A0584E0E9E2F3E0ACE2B4E001900D92D9
:102480008A95E1F7C6CF81E02CCF8091A2018F5FC2
:102490008093A201853608F459C111E01093B00170
:1024A00055C18091DA018F5F8093DA01853608F497
:1024B00001C211E01093D901FDC140E050E0452B6D
:1024C00009F4ECCC0E94C404882309F4E7CC0E94F0
:1024D0000000E4CCD8018D938D01E981FA81319619
:1024E000FA83E98388CD10922904C980DA808C0DA3
:1024F0009D1D9093280480932704960140E050E0AE
:1025000060E070E080E090E0A0903705B090380582
:10251000C0903905D0903A05E0903B05F0903C051D
:1025200000913D0510913E050E9438172093370514
:10253000309338054093390550933A0560933B0535
:1025400070933C0580933D0590933E050E948A015F
:102550005B016C01E12CF12C87016983BA828B83CA
:10256000DC82ED82FE820F83188760931F03B09296
:10257000200380932103D092220310922303109210
:10258000240310922503109226038091000190E00D
:1025900090937901809378010091A10110E010934C
:1025A0007B0100937A012091A001A22EB12CB09260
:1025B0007D01A0927C0184E0C82ED12CD092B20182
:1025C000C092B1019BE0E92EF12CF092B401E092AF
:1025D000B30120E030E040E251E4609101017091EC
:1025E000020180910301909104010E9444151B0196
:1025F0002C010E94FE167093B6016093B50120E095
:1026000030E040E251E46091AC017091AD01809105
:10261000AE019091AF010E9444156B017C010E94B4
:10262000FE167093B8016093B701B801110F880BC3
:10263000990B0E94E514A20191010E9419160E94B3
:10264000FE167093BA016093B901B501BB0C880BFB
:10265000990B0E94E514A70196010E9419160E9489
:10266000FE167093BC016093BB018091B00190E0B5
:102670009093BE018093BD018091D90190E0909329
:10268000C0018093BF01C090A801D090A901E09043
:10269000AA01F090AB010AE0C00ED11CE11CF11CB4
:1026A0000E944C04C616D706E806F90608F08EC04C
:1026B00080E090E50E94900A0E94880A81E00E94D2
:1026C000000897FFFBCF0E94570ABC01990F880BA7
:1026D000990B0E94E51420E030E040E058E30E94AE
:1026E00044156B017C0160916E0270916F0290E065
:1026F00080E00E94E3149B01AC01C701B6010E9477
:1027000044156B017C0120E030E84BEB54E40E945F
:10271000DE1487FFBACEA70196016091A4017091E3
:10272000A5018091A6019091A7010E9419166093BE
:10273000A4017093A5018093A6019093A7018091B5
:10274000A3018F5F8093A3011092A2018091A30146
:10275000843690F11092B00120E030E048EC52E471
:102760006091A4017091A5018091A6019091A701AB
:102770000E9485166B017C010E94FE167093C401B5
:102780006093C30120E030E040E251E4C701B601AC
:102790000E948516609301017093020180930301EA
:1027A000909304011092A3011092A4011092A5012C
:1027B0001092A6011092A7010E944C046093A801F8
:1027C0007093A9018093AA019093AB01C090E0019E
:1027D000D090E101E090E201F090E3012AE0C20E26
:1027E000D11CE11CF11C0E944C04C616D706E80659
:1027F000F90608F0DAC080E090E40E94900A0E9496
:10280000880A81E00E94000897FFFBCF0E94570AC8
:10281000BC01990F880B990B0E94E51420E030E071
:1028200040E058E30E9444156B017C0160916E0208
:1028300070916F0290E080E00E94E3149B01AC0174
:10284000C701B6010E94441520E030E04AE754E495
:102850000E9485166B017C0120E030E040E05FE3E0
:102860000E942D1718160CF01CCEA090DB01A98237
:1028700020E030E040E450E4C701B6010E94DE14DD
:1028800087FF0FCEA70196016091DC017091DD01F9
:102890008091DE019091DF010E9419166093DC01A6
:1028A0007093DD018093DE019093DF010A2D0F5FAD
:1028B0000093DB018091DB01843608F46CC0109238
:1028C000DA011092D90120E030E048EC52E4609146
:1028D000DC017091DD018091DE019091DF010E94A9
:1028E00085166B017C0120E030E048EC52E40E9448
:1028F00044150E94FE167093C2016093C10123E348
:1029000033E343E550E4C701B6010E94851621ED8B
:1029100032E24BE15EE30E9418162CE837E640ED08
:102920005BE30E9485166B017C018091B00129EA6E
:1029300033E140E85FE3811118C029EC3EE84DE047
:102940005BE360910101709102018091030190911C
:1029500004010E9444159B01AC0162E27DEF86E810
:102960009FE30E9418169B01AC01C701B6010E94AB
:1029700085166093AC017093AD018093AE01909386
:10298000AF011092DB011092DC011092DD01109278
:10299000DE011092DF010E944C046093E00170930D
:1029A000E1018093E2019093E3010E944C04613CB9
:1029B00072438E42974F08F480CDFFCF0E942015BE
:1029C00008F481E00895E89409C097FB3EF49095DF
:1029D0008095709561957F4F8F4F9F4F9923A9F0F8
:1029E000F92F96E9BB279395F69587957795679587
:1029F000B795F111F8CFFAF4BB0F11F460FF1BC0CB
:102A00006F5F7F4F8F4F9F4F16C0882311F096E95D
:102A100011C0772321F09EE8872F762F05C066230B
:102A200071F096E8862F70E060E02AF09A95660FC4
:102A3000771F881FDAF7880F9695879597F908957D
:102A4000990F0008550FAA0BE0E8FEEF16161706BF
:102A5000E807F907C0F012161306E407F50798F027
:102A6000621B730B840B950B39F40A2661F0232B40
:102A7000242B252B21F408950A2609F4A140A695BC
:102A80008FEF811D811D08950E9457150C94C81564
:102A90000E94BA1538F00E94C11520F0952311F05C
:102AA0000C94B1150C94B71511240C94FC150E94CC
:102AB000D91570F3959FC1F3950F50E0551F629F94
:102AC000F001729FBB27F00DB11D639FAA27F00D87
:102AD000B11DAA1F649F6627B00DA11D661F829FAE
:102AE0002227B00DA11D621F739FB00DA11D621F93
:102AF000839FA00D611D221F749F3327A00D611DB0
:102B0000231F849F600D211D822F762F6A2F112491
:102B10009F5750409AF0F1F088234AF0EE0FFF1FC4
:102B2000BB1F661F771F881F91505040A9F79E3F1B
:102B3000510580F00C94B1150C94FC155F3FE4F343
:102B4000983ED4F3869577956795B795F795E79571
:102B50009F5FC1F7FE2B880F911D9695879597F97A
:102B6000089597F99F6780E870E060E008959FEF0F
:102B700080EC089500240A94161617061806090614
:102B8000089500240A9412161306140605060895E3
:102B9000092E0394000C11F4882352F0BB0F40F46B
:102BA000BF2B11F460FF04C06F5F7F4F8F4F9F4FAB
:102BB000089557FD9058440F551F59F05F3F71F02D
:102BC0004795880F97FB991F61F09F3F79F0879594
:102BD0000895121613061406551FF2CF4695F1DF1D
:102BE00008C0161617061806991FF1CF86957105AD
:102BF000610508940895E894BB2766277727CB01E1
:102C000097F90895F999FECF92BD81BDF89A992759
:102C100080B50895262FF999FECF1FBA92BD81BDC8
:102C200020BD0FB6F894FA9AF99A0FBE019608954E
:102C30005058BB27AA270E9430160C94C8150E9432
:102C4000BA1538F00E94C11520F039F49F3F19F4ED
:102C500026F40C94B7150EF4E095E7FB0C94B1152F
:102C6000E92F0E94D91558F3BA1762077307840732
:102C7000950720F079F4A6F50C94FB150EF4E09579
:102C80000B2EBA2FA02D0B01B90190010C01CA0126
:102C9000A0011124FF27591B99F0593F50F4503ED1
:102CA00068F11A16F040A22F232F342F4427585FC3
:102CB000F3CF469537952795A795F0405395C9F7DB
:102CC0007EF41F16BA0B620B730B840BBAF0915093
:102CD000A1F0FF0FBB1F661F771F881FC2F70EC032
:102CE000BA0F621F731F841F48F487957795679505
:102CF000B795F7959E3F08F0B0CF9395880F08F0F1
:102D00009927EE0F9795879508950E9499160C9430
:102D1000C8150E94C11558F00E94BA1540F029F458
:102D20005F3F29F00C94B11551110C94FC150C94D3
:102D3000B7150E94D91568F39923B1F3552391F380
:102D4000951B550BBB27AA2762177307840738F01A
:102D50009F5F5F4F220F331F441FAA1FA9F335D077
:102D60000E2E3AF0E0E832D091505040E695001C2B
:102D7000CAF72BD0FE2F29D0660F771F881FBB1FE5
:102D8000261737074807AB07B0E809F0BB0B802DC3
:102D9000BF01FF2793585F4F3AF09E3F510578F0EF
:102DA0000C94B1150C94FC155F3FE4F3983ED4F3FA
:102DB000869577956795B795F7959F5FC9F7880FC3
:102DC000911D9695879597F90895E1E0660F771F15
:102DD000881FBB1F621773078407BA0720F0621BA6
:102DE000730B840BBA0BEE1F88F7E09508950E94D1
:102DF000FE166894B1110C94FC1508950E94E1151B
:102E000088F09F5798F0B92F9927B751B0F0E1F0AB
:102E1000660F771F881F991F1AF0BA95C9F714C05B
:102E2000B13091F00E94FB15B1E008950C94FB15B0
:102E3000672F782F8827B85F39F0B93FCCF3869594
:102E400077956795B395D9F73EF4909580957095F1
:102E500061957F4F8F4F9F4F08950E94201508F472
:102E60008FEF0895EE0FFF1F0590F491E02D099468
:102E70002A0D3B1D4C1D5D1D6E1D7F1D801F911F6A
:102E800008952A193B094C095D096E097F09800BD9
:102E9000910B08952A153B054C055D056E057F05D0
:102EA0008007910708950F931F93CF93DF9382308C
:102EB000910510F482E090E0E0914305F091440523
:102EC00030E020E0B0E0A0E0309799F42115310522
:102ED00009F44AC0281B390B24303105D8F58A8102
:102EE0009B816115710589F1FB0193838283FE014A
:102EF00011C0408151810281138148175907E0F0C8
:102F00004817590799F4109761F012960C9312978D
:102F100013961C933296CF01DF91CF911F910F91A1
:102F200008950093430510934405F4CF211531050E
:102F300051F04217530738F0A901DB019A01BD0196
:102F4000DF01F801C1CFEF01F9CF909344058093E1
:102F50004305CDCFFE01E20FF31F819391932250E1
:102F6000310939832883D7CF20914105309142051B
:102F7000232B41F420910701309108013093420541
:102F8000209341052091050130910601211531055D
:102F900041F42DB73EB74091090150910A01241B1D
:102FA000350BE0914105F0914205E217F307A0F4DB
:102FB0002E1B3F0B2817390778F0AC014E5F5F4F8F
:102FC0002417350748F04E0F5F1F5093420540937A
:102FD0004105819391939FCFF0E0E0E09CCFCF93A8
:102FE000DF930097E9F0FC01329713821282A091DF
:102FF0004305B0914405ED0130E020E01097A1F4C5
:1030000020813181820F931F20914105309142052B
:103010002817390709F061C0F0934205E093410594
:10302000DF91CF910895EA01CE17DF07E8F54A81D5
:103030005B819E0141155105B1F7E901FB83EA83EC
:1030400049915991C40FD51FEC17FD0761F4808198
:1030500091810296840F951FE9019983888382816B
:1030600093819B838A83F0E0E0E012968D919C919E
:1030700013970097B9F52D913C911197CD010296C8
:10308000820F931F2091410530914205281739077F
:1030900039F6309751F51092440510924305B093DC
:1030A0004205A0934105BCCFD383C28340815181A7
:1030B000840F951FC817D90761F44E5F5F4F888151
:1030C0009981480F591F518340838A819B81938343
:1030D00082832115310509F0B0CFF0934405E093C8
:1030E00043059ECFFD01DC01C0CF13821282D7CFF2
:1030F000F894FFCF010000C84100004505800000A2
:10310000000000FA045A0487044705B8049604AA8C
:1031100004000000004C071F077B07F50618070591
:0431200007F60600A8
:107E0000112484B714BE81FFF0D085E080938100F7
:107E100082E08093C00088E18093C10086E0809377
:107E2000C20080E18093C4008EE0C9D0259A86E02C
:107E300020E33CEF91E0309385002093840096BBD3
:107E4000B09BFECF1D9AA8958150A9F7CC24DD24C4
:107E500088248394B5E0AB2EA1E19A2EF3E0BF2EE7
:107E6000A2D0813461F49FD0082FAFD0023811F036
:107E7000013811F484E001C083E08DD089C08234E0
:107E800011F484E103C0853419F485E0A6D080C0E4
:107E9000853579F488D0E82EFF2485D0082F10E0AE
:107EA000102F00270E291F29000F111F8ED06801E7
:107EB0006FC0863521F484E090D080E0DECF843638
:107EC00009F040C070D06FD0082F6DD080E0C81688
:107ED00080E7D80618F4F601B7BEE895C0E0D1E017
:107EE00062D089930C17E1F7F0E0CF16F0E7DF06D8
:107EF00018F0F601B7BEE89568D007B600FCFDCFD4
:107F0000A601A0E0B1E02C9130E011968C91119780
:107F100090E0982F8827822B932B1296FA010C0160
:107F200087BEE89511244E5F5F4FF1E0A038BF0790
:107F300051F7F601A7BEE89507B600FCFDCF97BE46
:107F4000E89526C08437B1F42ED02DD0F82E2BD052
:107F50003CD0F601EF2C8F010F5F1F4F84911BD097
:107F6000EA94F801C1F70894C11CD11CFA94CF0C13
:107F7000D11C0EC0853739F428D08EE10CD085E9AC
:107F80000AD08FE07ACF813511F488E018D01DD067
:107F900080E101D065CF982F8091C00085FFFCCF94
:107FA0009093C60008958091C00087FFFCCF809118
:107FB000C00084FD01C0A8958091C6000895E0E648
:107FC000F0E098E1908380830895EDDF803219F02E
:107FD00088E0F5DFFFCF84E1DECF1F93182FE3DFCA
:107FE0001150E9F7F2DF1F91089580E0E8DFEE27F6
:047FF000FF270994CA
:027FFE00040479
:00000001FF
