:020000040000FA
:100000000C945D000C9485000C9485000C94850084
:100010000C9485000C9485000C9485000C9485004C
:100020000C9485000C9485000C9485000C9485003C
:100030000C9485000C9485000C9485000C9485002C
:100040000C940F060C9485000C947F060C945906B2
:100050000C9485000C9485000C9485000C9485000C
:100060000C9485000C9485000000000024002700FB
:100070002A0000000000250028002B0004040404CE
:100080000404040402020202020203030303030342
:10009000010204081020408001020408102001021F
:1000A00004081020000000080002010000030407FB
:1000B0000000000000000000B10611241FBECFEFB9
:1000C000D8E0DEBFCDBF11E0A0E0B1E0ECE4F2E2A9
:1000D00002C005900D92AE31B107D9F724E0AEE130
:1000E000B1E001C01D92A236B207E1F710E0CDE504
:1000F000D0E004C02197FE010E94DE0FCC35D1076D
:10010000C9F70E942C070C9424110C940000209134
:100110004702263051F4892BF1F480914A029091E4
:100120004B0298278927982708952031A1F4FC01D4
:10013000EE0FFF1F37968091460390914703029779
:10014000E817F90740F4E05DFD4F86899789892714
:1001500098278927089590E080E00895BF92CF9274
:10016000DF92EF92FF920F931F93CF93DF93082FAD
:100170007A01690110E08FE0B82EC62FD0E0CC0FD5
:10018000DD1F80913402181708F045C0A09132029B
:10019000B09133021B9DA00DB11D1124FD01EC0F88
:1001A000FD1F0190F081E02D011115C0309779F00D
:1001B0008091460390914703049758F0809148033B
:1001C000811107C080914702A601B70109951F5F01
:1001D000D8CF80E0F9CF1E968C910813F8CF3097D6
:1001E000E1F08091460390914703049790F080914D
:1001F000480381110EC080914702A601B701DF912B
:10020000CF911F910F91FF90EF90DF90CF90BF9013
:10021000099480E0F2CF85E0011181E0DF91CF9178
:100220001F910F91FF90EF90DF90CF90BF900895B6
:10023000AC01FC018FEF9FEF9F01241B350B2617AC
:1002400037079CF42191822728E030E0DC01A1707F
:10025000BB2796958795AB2B21F0A1E08A27A0EAD2
:100260009A272150310991F7E7CF089590E0FC01DA
:10027000EC55FF4F2491FC01E057FF4F3491FC01F6
:10028000E458FF4FE491EE23C9F0222339F02330E4
:1002900001F1A8F4213019F1223029F1F0E0EE0F3C
:1002A000FF1FEE58FF4FA591B4918FB7F894EC91D2
:1002B000611126C030953E233C938FBF08952730AF
:1002C000A9F02830C9F0243049F7809180008F7D53
:1002D00003C0809180008F7780938000DFCF84B54A
:1002E0008F7784BDDBCF84B58F7DFBCF8091B0004D
:1002F0008F778093B000D2CF8091B0008F7DF9CFFF
:100300003E2BDACFCF93DF9390E0FC01E057FF4F15
:10031000249184589F4FFC0184918823D1F090E070
:10032000880F991FFC01E859FF4FA591B491FC017A
:10033000EE58FF4FC591D49161110EC09FB7F8944C
:100340008C91E22FE0958E238C932881E223E88321
:100350009FBFDF91CF9108958FB7F894EC91E22B76
:10036000EC938FBFF6CF8E50806480937C00809199
:100370007A00806480937A0080917A0086FDFCCFB9
:10038000809178009091790008953FB7F89480911A
:100390008F0190919001A0919101B091920126B5A9
:1003A000A89B05C02F3F19F00196A11DB11D3FBFAD
:1003B000BA2FA92F982F8827BC01CD01620F711D7C
:1003C000811D911D42E0660F771F881F991F4A9576
:1003D000D1F708952F923F924F925F926F927F9242
:1003E0008F929F92AF92BF92CF92DF92EF92FF9245
:1003F0000F931F93CF93DF93C0914C04D0914D0482
:10040000209749F48091490490914A04049718F088
:1004100081E080934B0480914B04882371F080919C
:10042000460390914703049740F18091480381115E
:1004300024C080914602811120C010924B0410927A
:100440004D0410924C0410924A0410924904D0E0DA
:10045000C0E0CE01DF91CF911F910F91FF90EF90FF
:10046000DF90CF90BF90AF909F908F907F906F90D4
:100470005F904F903F902F900895209709F04BC0C8
:100480000E94C5019B01AC0160E070E080E090E05B
:10049000A0903E02B0903F02C0904002D090410236
:1004A000E0904202F0904302009144021091450214
:1004B0000E94ED0FE0913C02F0913D021F01220CE1
:1004C000331C2E0E3F1E5101C12CD12CE12CF12CDE
:1004D00000E010E00E94F60F09F008F4BACFC091D6
:1004E0004904D0914A048E0102501109B80189E4EF
:1004F00093E00E941801F801E75BFC4F8083C85B22
:10050000DC4F988380913A0290913B0297FD03C0A3
:1005100061E00E94360180913802909139021816EC
:1005200019060CF0F0C08091360290913702DC0180
:10053000ED91FC910480F581E02D0995C09149046D
:10054000D0914A0420914C0430914D04C21BD30B2E
:100550008C179D0760F48091360290913702DC0180
:10056000ED91FC910480F581E02D0995EC01209737
:1005700009F446C0809136029091370260914C0494
:1005800070914D04675B7C4FDC01ED91FC91028022
:10059000F381E02DAE010995EC0180914C0490911E
:1005A0004D048C0F9D1F90934D0480934C049E012D
:1005B00040E050E060E070E080E090E0A0904E0409
:1005C000B0904F04C0905004D0905104E090520479
:1005D000F090530400915404109155040E94E40FCC
:1005E00020934E0430934F04409350045093510491
:1005F0006093520470935304809354049093550471
:100600008091360290913702DC01ED91FC910480DB
:10061000F581E02D09952091380230913902821739
:100620009307ACF40E94C5014B015C0160933E024C
:1006300090923F0280934002B09241021092420297
:1006400010924302109244021092450202CF809110
:10065000360290913702DC01ED91FC910680F78122
:10066000E02D0995D0E0C0E020914C0430914D047C
:100670008091490490914A042817390708F4E9CE7B
:100680000E94C5019B01AC0160E070E080E090E059
:10069000A0903E02B0903F02C0904002D090410234
:1006A000E0904202F0904302009144021091450212
:1006B0000E94ED0FE0913C02F0913D021F01220CDF
:1006C000331C2E0E3F1E5101C12CD12CE12CF12CDC
:1006D00000E010E00E94F60F09F008F4BACE809115
:1006E0003A0290913B0297FD03C060E00E94360100
:1006F00010924B0410924D0410924C0410924A0434
:1007000010924904A6CEC0914904D0914A04809128
:100710004C0490914D04C81BD90BD1F08091360246
:1007200090913702DC01ED91FC910280F381E02D84
:10073000AE0169E473E00995EC0180913602909175
:100740003702DC01ED91FC910680F781E02D0995DF
:1007500080914C0490914D048C0F9D1F90934D04FB
:1007600080934C049E0140E050E060E070E080E047
:1007700090E0A0904E04B0904F04C0905004D090F0
:100780005104E0905204F0905304009154041091ED
:1007900055040E94E40F20934E0430934F0440937D
:1007A0005004509351046093520470935304809307
:1007B00054049093550458CF209146033091470339
:1007C0002430310540F090914803911104C090917C
:1007D0004602992379F025E030E030934A042093D3
:1007E000490490914A03906890934A0380934B0385
:1007F0000C94EA0190E080E008952FB7F89460919E
:100800008B0170918C0180918D0190918E012FBF91
:100810000895AF92BF92CF92DF92EF92FF920F9323
:100820001F93CF93DF936C017B018B01040F151F86
:10083000EB015E01AE18BF08C017D10759F06991EE
:10084000D601ED91FC910190F081E02DC601099552
:10085000892B79F7C501DF91CF911F910F91FF90FF
:10086000EF90DF90CF90BF90AF900895FC01538D33
:10087000448D252F30E0842F90E0821B930B54177A
:1008800010F0CF96089501970895FC01918D828D07
:10089000981761F0A28DAE0FBF2FB11D5D968C91A0
:1008A000928D9F5F9F73928F90E008958FEF9FEFDF
:1008B0000895FC01918D828D981731F0828DE80F9B
:1008C000F11D858D90E008958FEF9FEF0895FC0155
:1008D000918D228D892F90E0805C9F4F821B910922
:1008E0008F739927089583E991E00E94670421E0BE
:1008F000892B09F420E0822F089580E090E0892B75
:1009000029F00E94730481110C9400000895FC01E9
:10091000A48DA80FB92FB11DA35ABF4F2C91848D60
:1009200090E001968F739927848FA689B7892C93BD
:10093000A089B1898C91837080648C93938D848D10
:10094000981306C00288F389E02D80818F7D808313
:100950000895EF92FF920F931F93CF93DF93EC01D3
:1009600081E0888F9B8D8C8D98131AC0E889F98956
:10097000808185FF15C09FB7F894EE89FF89608359
:10098000E889F98980818370806480839FBF81E0DA
:1009900090E0DF91CF911F910F91FF90EF9008951C
:1009A000F62E0B8D10E00F5F1F4F0F731127E02EF7
:1009B0008C8D8E110CC00FB607FCFACFE889F9892F
:1009C000808185FFF5CFCE010E948704F1CFEB8DAA
:1009D000EC0FFD2FF11DE35AFF4FF0829FB7F89403
:1009E0000B8FEA89FB8980818062CFCFCF93DF9321
:1009F000EC01888D8823B9F0AA89BB89E889F98937
:100A00008C9185FD03C0808186FD0DC00FB607FC6B
:100A1000F7CF8C9185FFF2CF808185FFEDCFCE019E
:100A20000E948704E9CFDF91CF9108951F93CF9360
:100A3000DF93EA016531710598F59B01240F351F9D
:100A40002531310568F5509147025350A091490472
:100A5000B0914A041297CC0FDD1F660F771F90E00C
:100A600080E08C179D0709F15230C0F49C012B5F88
:100A70003F4FA217B30790F0FB01E80FF91FE85BA7
:100A8000FE4F408111819C01205D3D4FF901E45EE4
:100A9000FE4F1083235E3E4FF90140830296E1CF63
:100AA00082E0DF91CF911F91089580E0FACF1F93EC
:100AB000CF93DF93EA016531710598F59B01240F0F
:100AC000351F2531310568F5509147025350A091EB
:100AD0004904B0914A041297CC0FDD1F660F771FAF
:100AE00090E080E08C179D0709F15230C0F49C0122
:100AF0002B5F3F4FA217B30790F0FB01E80FF91FE0
:100B0000E25EFE4F408111819C01205D3D4FF90165
:100B1000E45EFE4F1083235E3E4FF9014083029650
:100B2000E1CF82E0DF91CF911F91089580E0FACF6D
:100B30009FEF980F973F08F081E0682F81E090E0E9
:100B40000C94BD0EEF92FF920F931F93CF93DF9300
:100B50008B017A01D0E0C0E0CE15DF0509F455C065
:100B60000115110511F5CE010E9487009C0121504D
:100B70003109273F310508F050C0209100012817A6
:100B8000190679F0809300010E9498058091000178
:100B90009FEF980F973F28F4E0913202F0913302D3
:100BA000868721960F5F1F4FD7CF01301105B1F413
:100BB000CE010E9487008536910578F52091470186
:100BC0002817190671F3682F80934701853608F0BE
:100BD00060E082E090E00E94BD0EE3CF023011059C
:100BE00001F7CE010E94870085369105B0F420916F
:100BF000460128171906A9F2682F80934601853609
:100C000008F060E083E090E0E6CF80E0DF91CF91F4
:100C10001F910F91FF90EF90089583E0F7CF1F92FF
:100C20000F920FB60F9211242F933F938F939F93A0
:100C3000AF93BF9380918B0190918C01A0918D0116
:100C4000B0918E0130918A0123E0230F2D3758F5A2
:100C50000196A11DB11D20938A0180938B01909371
:100C60008C01A0938D01B0938E0180918F019091A2
:100C70009001A0919101B09192010196A11DB11D29
:100C800080938F0190939001A0939101B093920172
:100C9000BF91AF919F918F913F912F910F900FBE78
:100CA0000F901F90189526E8230F0296A11DB11DE5
:100CB000D2CF1F920F920FB60F9211242F933F9312
:100CC0004F935F936F937F938F939F93AF93BF9354
:100CD000EF93FF9383E991E00E948704FF91EF91E6
:100CE000BF91AF919F918F917F916F915F914F9144
:100CF0003F912F910F900FBE0F901F9018951F924C
:100D00000F920FB60F9211242F938F939F93EF930F
:100D1000FF93E091A301F091A4018081E091A901EA
:100D2000F091AA0182FD1BC090818091AC018F5F80
:100D30008F732091AD01821741F0E091AC01F0E09A
:100D4000ED56FE4F958F8093AC01FF91EF919F91EF
:100D50008F912F910F900FBE0F901F90189580814B
:100D6000F4CFCF93DF93C3E9D1E01B821A8288EEE0
:100D700093E0A0E0B0E08C839D83AE83BF838FE0DF
:100D800091E09983888385EC90E09D878C8784EC43
:100D900090E09F878E8780EC90E0998B888B81EC28
:100DA00090E09B8B8A8B82EC90E09D8B8C8B86EC09
:100DB00090E09F8B8E8B198E1A8E1B8E1C8E8FE06F
:100DC00090E00E94FF0F21E0FC012687A0E3B2E043
:100DD00013969C938E93129714962C9314971596B2
:100DE0002C9315971796DC93CE93169720E430E05A
:100DF00019963C932E93189710924703109246032E
:100E00001092480310924A041092490410924B0425
:100E100010924D0410924C04EEE4F4E01082118222
:100E2000128213821482158216821782E6E5F4E09C
:100E30001082118212821382148215821682178206
:100E400011969C938E9384E090E01B969C938E93D6
:100E50001A97DF91CF910895CF93DF93CDB7DEB787
:100E600028970FB6F894DEBF0FBECDBF789484B537
:100E7000826084BD84B5816084BD85B5826085BD96
:100E800085B5816085BD80916E00816080936E0024
:100E90001092810080918100826080938100809116
:100EA00081008160809381008091800081608093C7
:100EB00080008091B10084608093B1008091B00087
:100EC00081608093B00080917A00846080937A0082
:100ED00080917A00826080937A0080917A008160AC
:100EE00080937A0080917A00806880937A001092D3
:100EF000C10088E198E20FB6F894A895809360004D
:100F00000FBE90936000E091A301F091A40182E0F4
:100F10008083E0919F01F091A0011082E091A101F6
:100F2000F091A20187E680831092AB01E091A701C6
:100F3000F091A80186E08083E091A501F091A601DF
:100F4000808180618083E091A501F091A60180817C
:100F500088608083E091A501F091A601808180687E
:100F60008083E091A501F091A60180818F7D80832F
:100F700080913A0290913B0297FD08C061E00E9487
:100F8000820160E080913A020E943601E0913602CF
:100F9000F0913702148215821682178280913602F0
:100FA00090913702DC01ED91FC910680F781E02DF4
:100FB00009958091360290913702DC01ED91FC9108
:100FC0000480F581E02D09959093390280933802D1
:100FD00084E091E090933D0280933C020E94C50121
:100FE00040913C0250913D02E7E0E49F9001E59F73
:100FF000300D1124DC01CB01820F931FA11DB11D07
:101000005C016D01E12CF12C87018983BA82AB83ED
:10101000DC82ED82FE820F83188780933E02B092BD
:101020003F02A0934002D0924102109242021092DD
:10103000430210924402109245021092470310920C
:101040004603E0913002F091310287E595E0958307
:10105000848382EA95E09387828786E195E097838F
:10106000868360E08EE00E94820160E08FE00E9453
:10107000820190E080E00E94B50E803371F181E042
:1010800080930001109247011092460160E390E0C6
:1010900080E00E94BD0E809100010E949805609141
:1010A0004701653608F014C282E090E00E94BD0E50
:1010B00060914601653608F060E083E090E00E94B0
:1010C000BD0E809100019FEF980F973F58F5E0917A
:1010D0003202F0913302868725C081E090E00E94C1
:1010E000B50E89838150873F10F001E00983198193
:1010F0001093000182E090E00E94B50E853608F062
:1011000080E08093470183E090E00E94B50E853631
:1011100008F080E080934601E0913202F0913302C2
:10112000A980A68604E0602E712C88E0882E912C80
:10113000A89550904B04552009F4CCC10E94EA01B7
:101140008091000190E090931F0180931E01009117
:10115000470110E0109321010093200120914601E6
:10116000A22EB12CB0922301A092220170924901CB
:10117000609248018AE0C82ED12CD0924B01C092D7
:101180004A0120E030E040E251E4609101017091B9
:10119000020180910301909104010E94F70D1B014F
:1011A0002C010E94AA0F70934D0160934C0120E026
:1011B00030E040E251E460917A0170917B018091CE
:1011C0007C0190917D010E94F70D6B017C010E94D2
:1011D000AA0F70934F0160934E01B801110F880B55
:1011E000990B0E94980DA20191010E94CC0E0E94C1
:1011F000AA0F7093510160935001B501BB0C880B8D
:10120000990B0E94980DA70196010E94CC0E0E9496
:10121000AA0F709353016093520180917E0190E078
:10122000909355018093540180917F0190E09093B9
:10123000570180935601C0907601D0907701E090DD
:101240007801F09079010AE0C00ED11CE11CF11C7C
:101250000E94FD03C616D706E806F90608F070C01E
:101260008FE00E94B301BC01990F880B990B0E947B
:10127000980D6B017C0120E030E04BE953E40E94C3
:10128000910D87FF81C310917101A70196016091B3
:1012900072017091730180917401909175010E94A7
:1012A000CC0E6093720170937301809374019093DC
:1012B00075011F5F1093710110927001809171018F
:1012C0008436A0F110927E0120E030E048EC52E438
:1012D0006091720170917301809174019091750118
:1012E0000E94380F20E030E040EA50E40E94F70D01
:1012F00020E030EC4FE754E40E94380F2AE037ED4D
:1013000043E25CE30E94380F609301017093020195
:101310008093030190930401109271011092720165
:101320001092730110927401109275010E94FD03D6
:10133000609376017093770180937801909379019F
:10134000C0908601D0908701E0908801F0908901DB
:101350003AE0C30ED11CE11CF11C0E94FD03C6162D
:10136000D706E806F90608F0AAC08EE00E94B3018D
:10137000BC01990F880B990B0E94980D6B017C01A1
:1013800020E030E048EC52E40E94D90F18160CF02F
:1013900007C320E030E84EE054E4C701B6010E94E4
:1013A000910D87FFFDC2A0908101A982A70196013E
:1013B00060918201709183018091840190918501F7
:1013C0000E94CC0E6093820170938301809384010C
:1013D000909385010A2D0F5F009381011092800187
:1013E00080918101843608F460C010927F0120E072
:1013F00030E048EC52E46091820170918301809169
:101400008401909185010E94380F20E030E040EA8D
:1014100050E40E94F70D20E030EC4FE754E40E94C6
:10142000380F20E030E040E05FE30E94CB0E2AE07E
:1014300037ED43EA5CE30E94380F6B017C01809139
:101440007E0129EA33E140E85FE3811118C029EC0D
:101450003EE84DE05BE360910101709102018091F3
:101460000301909104010E94F70D9B01AC0162E21F
:101470007DEF86E89FE30E94CB0E9B01AC01C70184
:10148000B6010E94380F60937A0170937B018093BC
:101490007C0190937D011092810110928201109243
:1014A000830110928401109285010E94FD036093D4
:1014B00086017093870180938801909389010E942F
:1014C000FD03613C72438E42974F08F475C2FFCF13
:1014D00060E0EACD8091360290913702DC01ED9117
:1014E000FC910084F185E02D099520914803892B1A
:1014F00009F4BFC0211144C00E94C5019B01AC0189
:1015000060E070E080E090E0A0903E02B0903F028A
:10151000C0904002D0904102E0904202F09043021D
:1015200000914402109145020E94ED0FA0913C02EF
:10153000B0913D02FD01EE0FFF1FEA0FFB1F5F019F
:10154000D12CC12CE12CF12C8701E983BA82CB820A
:10155000DC82ED82FE820F831887C12CD12CE12C16
:10156000F12C00E010E00E94F60F09F008F475C0BD
:101570001092470310924603BB24B394B0924803E1
:1015800080914803882309F460C2009146031091BA
:1015900047030115B1E01B0711F410924803C12C59
:1015A000DD24D394C01AD10AE0903602F0903702BD
:1015B0000A5B1D4F1A821982A980BA80CA14DB0403
:1015C00039F10E94FD03D70118966D937D938D9399
:1015D0009C931B97D701ED91FC910284F385E02D3C
:1015E000C701099597FFF5C10E94FD03F70120850A
:1015F000318542855385621B730B840B950B2481C7
:10160000358146815781621773078407950710F368
:101610008091460390914703009709F0E5C1A980A6
:10162000BA80AB2809F4E0C150914602552309F471
:10163000DBC160913402209132023091330240E0EC
:10164000641709F4CFC1215F3F4FF90131977081D1
:10165000571709F4C9C14F5FF3CF809136029091BB
:101660003702DC01ED91FC910284F385E02D0995B0
:1016700087CF222309F464CD0E94C5019B01AC01F0
:1016800060E070E080E090E0A0903E02B0903F0209
:10169000C0904002D0904102E0904202F09043029C
:1016A00000914402109145020E94ED0FA0913C026E
:1016B000B0913D02FD01EE0FFF1FEA0FFB1F5F011E
:1016C000D12CC12CE12CF12C8701E983BA82CB8289
:1016D000DC82ED82FE820F831887C12CD12CE12C95
:1016E000F12C00E010E00E94F60F09F008F428CD7C
:1016F00010924803009146031091470304301105EE
:1017000008F41ECDABE4B3E0EEEF1D92EA95E9F7E5
:10171000D0904602D0924903C0904702C0924A033B
:1017200070924A046092490440913502442309F4BE
:1017300007CDDD2009F4DBC1509134022091320243
:101740003091330290E080E0851708F0F9CC0196E3
:10175000EFE0AE2EA89EF001A99EF00D1124319766
:10176000E20FF31F6081D612EFCFF7E0CF1661F0E2
:10177000FC1508F48AC1AA24A394CA1448F048E0CE
:1017800050E05A83498393C140E0DD2009F4D8CC6E
:10179000542E24E030E03A8329838FC168E070E062
:1017A0007A83698384C1A980BA80B0924703A092EA
:1017B00046038D2D90E0EFEFEC0DE03108F095C180
:1017C000F0E0EB51F44F0C94DE0F0D0C0D0C390CC6
:1017D000390C5C0C740CF50B750D750D750D750DD4
:1017E000750D750D750D8C0CA80C892B09F47DC138
:1017F00075E0E72EF12CF0924A04E092490428E0CB
:1018000030E050E040E066E08D2D0E94AE0088237D
:1018100009F494CC0E94DC0393CC892B09F465C1B4
:10182000409148025091490254274527542720915E
:101830004A0230914B02322723273227B9016770C1
:101840007727E1E0672B09F4E0E0C90163E09695B2
:1018500087956A95E1F78E0F80934B0390E005968C
:1018600090934A048093490461E0C612CDCF60E0B2
:10187000CBCF892B09F439C14091480250914902DC
:1018800054274527542720914A0230914B02322792
:1018900023273227822F880F80934B0390E00596F1
:1018A00090934A048093490493E0F92E62E0CF14A8
:1018B00009F4AACF63E0A8CF4091480250914902B1
:1018C00054274527542790924A048092490484E083
:1018D000E8E4F2E0ABE4B3E001900D928A95E1F721
:1018E00021E030E064E090CF4091480250914902FD
:1018F00054274527542790924A048092490484E053
:10190000E8E4F2E0ABE4B3E001900D928A95E1F7F0
:1019100021E030E065E078CF4091480250914902E3
:1019200054274527542720914A0230914B023227F1
:101930002327322790924A048092490484E0E8E405
:10194000F2E0ABE4B3E001900D928A95E1F7CACFE3
:10195000409148025091490254274527542720912D
:101960004A0230914B0232272327322790924A04B1
:101970008092490484E0E8E4F2E0ABE4B3E0019053
:101980000D928A95E1F7C6CF809170018F5F8093A9
:101990007001853608F492CC21E020937E018ECC34
:1019A000809180018F5F80938001853608F418CD87
:1019B00011E010937F0114CD40E050E0452B09F475
:1019C000B7CB0E947304882309F4B2CB0E940000B5
:1019D000AFCBD8018D938D01E981FA813196FA83DD
:1019E000E983EACD10924803C980DA808C0D9D1DF1
:1019F0009093470380934603960140E050E060E0F7
:101A000070E080E090E0A0905604B0905704C09041
:101A10005804D0905904E0905A04F0905B0400916F
:101A20005C0410915D040E94E40F209356043093EF
:101A30005704409358045093590460935A04709388
:101A40005B0480935C0490935D040E94C5015B017C
:101A50006C01E12CF12C87016983BA828B83DC82D3
:101A6000ED82FE820F83188760933E02B0923F02A0
:101A700080934002D092410210924202109243029F
:101A800010924402109245025BCB81EF8C0D8230A4
:101A900008F07ECE0930110508F452CBB0904C020C
:101AA000EB2CF12C9701275F3F4F3A832983A980C4
:101AB000BA800A151B0508F443CB780122E0E21A2C
:101AC000F108B70186E492E00E941801F801E05D98
:101AD000FD4F3589F701E05DFD4F26898217930799
:101AE00009F02ECB552009F45ECE81E093CEEFEFC6
:101AF000EC0DE03108F04CCEF0E0EF57F24F0C94D3
:101B0000DE0FA008A008A008A008CE0BCE0BA008EE
:101B1000C80BC80BC80BC80BC80BC80BC80B4A0DA9
:101B20004A0D0E94D30D08F481E00895E89409C09D
:101B300097FB3EF490958095709561957F4F8F4F00
:101B40009F4F9923A9F0F92F96E9BB279395F69516
:101B5000879577956795B795F111F8CFFAF4BB0F94
:101B600011F460FF1BC06F5F7F4F8F4F9F4F16C0F8
:101B7000882311F096E911C0772321F09EE8872F82
:101B8000762F05C0662371F096E8862F70E060E03E
:101B90002AF09A95660F771F881FDAF7880F9695B7
:101BA000879597F90895990F0008550FAA0BE0E85B
:101BB000FEEF16161706E807F907C0F0121613060F
:101BC000E407F50798F0621B730B840B950B39F44F
:101BD0000A2661F0232B242B252B21F408950A26B5
:101BE00009F4A140A6958FEF811D811D08950E94E3
:101BF0000A0E0C947B0E0E946D0E38F00E94740E3B
:101C000020F0952311F00C94640E0C946A0E1124AC
:101C10000C94AF0E0E948C0E70F3959FC1F3950F3C
:101C200050E0551F629FF001729FBB27F00DB11D60
:101C3000639FAA27F00DB11DAA1F649F6627B00DF0
:101C4000A11D661F829F2227B00DA11D621F739FD9
:101C5000B00DA11D621F839FA00D611D221F749FE7
:101C60003327A00D611D231F849F600D211D822F2E
:101C7000762F6A2F11249F5750409AF0F1F0882355
:101C80004AF0EE0FFF1FBB1F661F771F881F915082
:101C90005040A9F79E3F510580F00C94640E0C94BF
:101CA000AF0E5F3FE4F3983ED4F386957795679542
:101CB000B795F795E7959F5FC1F7FE2B880F911DAC
:101CC0009695879597F9089597F99F6780E870E052
:101CD00060E008959FEF80EC089500240A941616A2
:101CE000170618060906089500240A94121613060A
:101CF000140605060895092E0394000C11F4882398
:101D000052F0BB0F40F4BF2B11F460FF04C06F5FB3
:101D10007F4F8F4F9F4F089557FD9058440F551F89
:101D200059F05F3F71F04795880F97FB991F61F05D
:101D30009F3F79F087950895121613061406551FD4
:101D4000F2CF4695F1DF08C0161617061806991F40
:101D5000F1CF86957105610508940895E894BB2735
:101D600066277727CB0197F90895F999FECF92BDA1
:101D700081BDF89A992780B50895262FF999FECF4D
:101D80001FBA92BD81BD20BD0FB6F894FA9AF99A98
:101D90000FBE019608955058BB27AA270E94E30E54
:101DA0000C947B0E0E946D0E38F00E94740E20F091
:101DB00039F49F3F19F426F40C946A0E0EF4E09562
:101DC000E7FB0C94640EE92F0E948C0E58F3BA17AF
:101DD000620773078407950720F079F4A6F50C9441
:101DE000AE0E0EF4E0950B2EBA2FA02D0B01B9010B
:101DF00090010C01CA01A0011124FF27591B99F081
:101E0000593F50F4503E68F11A16F040A22F232F8C
:101E1000342F4427585FF3CF469537952795A795DC
:101E2000F0405395C9F77EF41F16BA0B620B730B83
:101E3000840BBAF09150A1F0FF0FBB1F661F771FF4
:101E4000881FC2F70EC0BA0F621F731F841F48F4A9
:101E5000879577956795B795F7959E3F08F0B0CF32
:101E60009395880F08F09927EE0F97958795089519
:101E70000E944C0F0C947B0E0E94740E58F00E942E
:101E80006D0E40F029F45F3F29F00C94640E51115F
:101E90000C94AF0E0C946A0E0E948C0E68F399237A
:101EA000B1F3552391F3951B550BBB27AA27621756
:101EB0007307840738F09F5F5F4F220F331F441F63
:101EC000AA1FA9F335D00E2E3AF0E0E832D0915097
:101ED0005040E695001CCAF72BD0FE2F29D0660F84
:101EE000771F881FBB1F261737074807AB07B0E8C7
:101EF00009F0BB0B802DBF01FF2793585F4F3AF0CD
:101F00009E3F510578F00C94640E0C94AF0E5F3F29
:101F1000E4F3983ED4F3869577956795B795F79552
:101F20009F5FC9F7880F911D9695879597F908953A
:101F3000E1E0660F771F881FBB1F621773078407D6
:101F4000BA0720F0621B730B840BBA0BEE1F88F7E5
:101F5000E09508950E94940E88F09F5798F0B92F4D
:101F60009927B751B0F0E1F0660F771F881F991FCE
:101F70001AF0BA95C9F714C0B13091F00E94AE0EB4
:101F8000B1E008950C94AE0E672F782F8827B85FC4
:101F900039F0B93FCCF3869577956795B395D9F726
:101FA0003EF490958095709561957F4F8F4F9F4F30
:101FB00008950E94D30D08F48FEF0895EE0FFF1FD0
:101FC0000590F491E02D09942A0D3B1D4C1D5D1DDB
:101FD0006E1D7F1D801F911F08952A193B094C0912
:101FE0005D096E097F09800B910B08952A153B0549
:101FF0004C055D056E057F058007910708950F93D9
:102000001F93CF93DF938230910510F482E090E02C
:10201000E0916004F091610430E020E0B0E0A0E0E5
:10202000309799F42115310509F44AC0281B390B62
:1020300024303105D8F58A819B816115710589F1BC
:10204000FB0193838283FE0111C040815181028193
:10205000138148175907E0F04817590799F410976A
:1020600061F012960C93129713961C933296CF013F
:10207000DF91CF911F910F91089500936004109309
:102080006104F4CF2115310551F04217530738F0A0
:10209000A901DB019A01BD01DF01F801C1CFEF0108
:1020A000F9CF9093610480936004CDCFFE01E20FDD
:1020B000F31F819391932250310939832883D7CF1D
:1020C00020915E0430915F04232B41F4209107019D
:1020D0003091080130935F0420935E042091050144
:1020E000309106012115310541F42DB73EB74091DD
:1020F000090150910A01241B350BE0915E04F09117
:102100005F04E217F307A0F42E1B3F0B28173907D3
:1021100078F0AC014E5F5F4F2417350748F04E0F43
:102120005F1F50935F0440935E04819391939FCF10
:10213000F0E0E0E09CCFCF93DF930097E9F0FC0163
:10214000329713821282A0916004B0916104ED0174
:1021500030E020E01097A1F420813181820F931F9D
:1021600020915E0430915F042817390709F061C09F
:10217000F0935F04E0935E04DF91CF910895EA014C
:10218000CE17DF07E8F54A815B819E0141155105B5
:10219000B1F7E901FB83EA8349915991C40FD51F37
:1021A000EC17FD0761F4808191810296840F951FE1
:1021B000E90199838883828193819B838A83F0E0FC
:1021C000E0E012968D919C9113970097B9F52D91AF
:1021D0003C911197CD010296820F931F20915E04CE
:1021E00030915F042817390739F6309751F510926E
:1021F000610410926004B0935F04A0935E04BCCFAE
:10220000D383C28340815181840F951FC817D9079A
:1022100061F44E5F5F4F88819981480F591F518348
:1022200040838A819B81938382832115310509F044
:10223000B0CFF0936104E09360049ECFFD01DC0118
:10224000C0CF13821282D7CFF894FFCF010000C80D
:102250004100006204800000000000A90409043667
:0A22600004F6046704450459040065
:107E0000112484B714BE81FFF0D085E080938100F7
:107E100082E08093C00088E18093C10086E0809377
:107E2000C20080E18093C4008EE0C9D0259A86E02C
:107E300020E33CEF91E0309385002093840096BBD3
:107E4000B09BFECF1D9AA8958150A9F7CC24DD24C4
:107E500088248394B5E0AB2EA1E19A2EF3E0BF2EE7
:107E6000A2D0813461F49FD0082FAFD0023811F036
:107E7000013811F484E001C083E08DD089C08234E0
:107E800011F484E103C0853419F485E0A6D080C0E4
:107E9000853579F488D0E82EFF2485D0082F10E0AE
:107EA000102F00270E291F29000F111F8ED06801E7
:107EB0006FC0863521F484E090D080E0DECF843638
:107EC00009F040C070D06FD0082F6DD080E0C81688
:107ED00080E7D80618F4F601B7BEE895C0E0D1E017
:107EE00062D089930C17E1F7F0E0CF16F0E7DF06D8
:107EF00018F0F601B7BEE89568D007B600FCFDCFD4
:107F0000A601A0E0B1E02C9130E011968C91119780
:107F100090E0982F8827822B932B1296FA010C0160
:107F200087BEE89511244E5F5F4FF1E0A038BF0790
:107F300051F7F601A7BEE89507B600FCFDCF97BE46
:107F4000E89526C08437B1F42ED02DD0F82E2BD052
:107F50003CD0F601EF2C8F010F5F1F4F84911BD097
:107F6000EA94F801C1F70894C11CD11CFA94CF0C13
:107F7000D11C0EC0853739F428D08EE10CD085E9AC
:107F80000AD08FE07ACF813511F488E018D01DD067
:107F900080E101D065CF982F8091C00085FFFCCF94
:107FA0009093C60008958091C00087FFFCCF809118
:107FB000C00084FD01C0A8958091C6000895E0E648
:107FC000F0E098E1908380830895EDDF803219F02E
:107FD00088E0F5DFFFCF84E1DECF1F93182FE3DFCA
:107FE0001150E9F7F2DF1F91089580E0E8DFEE27F6
:047FF000FF270994CA
:027FFE00040479
:00000001FF
