:020000040000FA
:100000000C945D000C9485000C9485000C94850084
:100010000C9485000C9485000C9485000C9485004C
:100020000C9485000C9485000C9485000C9485003C
:100030000C9485000C9485000C9485000C9485002C
:100040000C9433050C9485000C94A3050C947D0549
:100050000C9485000C9485000C9485000C9485000C
:100060000C9485000C9485000000000024002700FB
:100070002A0000000000250028002B0004040404CE
:100080000404040402020202020203030303030342
:10009000010204081020408001020408102001021F
:1000A00004081020000000080002010000030407FB
:1000B0000000000000000000D50511241FBECFEF96
:1000C000D8E0DEBFCDBF11E0A0E0B1E0EAECF7E19F
:1000D00002C005900D92A831B107D9F724E0A8E13C
:1000E000B1E001C01D92A034B207E1F710E0CDE508
:1000F000D0E004C02197FE010E949D0ACC35D107B3
:10010000C9F70E9450060C94E30B0C940000BF92B8
:10011000CF92DF92EF92FF920F931F93CF93DF93D3
:10012000082F7A01690110E08FE0B82EC62FD0E0C9
:10013000CC0FDD1F80911202181708F045C0A09166
:100140001002B09111021B9DA00DB11D1124FD01E3
:10015000EC0FFD1F0190F081E02D011115C03097CB
:1001600079F08091240390912503049758F08091B1
:100170002603811107C080912502A601B7010995C8
:100180001F5FD8CF80E0F9CF1E968C910813F8CF6F
:100190003097E1F08091240390912503049790F02B
:1001A0008091260381110EC080912502A601B7011E
:1001B000DF91CF911F910F91FF90EF90DF90CF9043
:1001C000BF90099480E0F2CF85E0011181E0DF91DA
:1001D000CF911F910F91FF90EF90DF90CF90BF9044
:1001E0000895AC01FC018FEF9FEF9F01241B350B9D
:1001F000261737079CF42191822728E030E0DC01A4
:10020000A170BB2796958795AB2B21F0A1E08A279B
:10021000A0EA9A272150310991F7E7CF089590E09D
:10022000FC01EC55FF4F2491FC01E057FF4F349146
:10023000FC01E458FF4FE491EE23C9F0222339F08A
:10024000233001F1A8F4213019F1223029F1F0E036
:10025000EE0FFF1FEE58FF4FA591B4918FB7F894A2
:10026000EC91611126C030953E233C938FBF0895D9
:100270002730A9F02830C9F0243049F78091800058
:100280008F7D03C0809180008F7780938000DFCFC7
:1002900084B58F7784BDDBCF84B58F7DFBCF809114
:1002A000B0008F778093B000D2CF8091B0008F7D67
:1002B000F9CF3E2BDACF3FB7F89480916D01909142
:1002C0006E01A0916F01B091700126B5A89B05C089
:1002D0002F3F19F00196A11DB11D3FBFBA2FA92FC5
:1002E000982F8827BC01CD01620F711D811D911DC2
:1002F00042E0660F771F881F991F4A95D1F708952E
:100300002F923F924F925F926F927F928F929F9225
:10031000AF92BF92CF92DF92EF92FF920F931F9313
:10032000CF93DF93C0912A04D0912B04209749F4F6
:100330008091270490912804049718F081E080931D
:10034000290480912904882371F0809124039091DD
:100350002503049740F180912603811124C08091E8
:100360002402811120C01092290410922B041092B3
:100370002A041092280410922704D0E0C0E0CE0195
:10038000DF91CF911F910F91FF90EF90DF90CF9071
:10039000BF90AF909F908F907F906F905F904F90A5
:1003A0003F902F900895209709F04BC00E945B0169
:1003B0009B01AC0160E070E080E090E0A0901C0246
:1003C000B0901D02C0901E02D0901F02E09020024B
:1003D000F090210200912202109123020E94AC0AA7
:1003E000E0911A02F0911B021F01220C331C2E0E09
:1003F0003F1E5101C12CD12CE12CF12C00E010E06A
:100400000E94B50A09F008F4BACFC0912704D09130
:1004100028048E0102501109B80187E293E00E947E
:10042000F100F801E95DFC4F8083CA5DDC4F9883E1
:10043000809118029091190297FD03C061E00E941B
:100440000F018091160290911702181619060CF0F0
:10045000F0C08091140290911502DC01ED91FC91A5
:100460000480F581E02D0995C0912704D0912804DE
:1004700020912A0430912B04C21BD30B8C179D07AB
:1004800060F48091140290911502DC01ED91FC91D1
:100490000480F581E02D0995EC01209709F446C010
:1004A000809114029091150260912A0470912B049E
:1004B000695D7C4FDC01ED91FC910280F381E02DC0
:1004C000AE010995EC0180912A0490912B048C0FC8
:1004D0009D1F90932B0480932A049E0140E050E0DE
:1004E00060E070E080E090E0A0902C04B0902D04DB
:1004F000C0902E04D0902F04E0903004F09031048E
:1005000000913204109133040E94A30A20932C041A
:1005100030932D0440932E0450932F0460933004A5
:1005200070933104809332049093330480911402C9
:1005300090911502DC01ED91FC910480F581E02D94
:100540000995209116023091170282179307ACF497
:100550000E945B014B015C0160931C0290921D02A2
:1005600080931E02B0921F0210922002109221026C
:10057000109222021092230202CF809114029091D5
:100580001502DC01ED91FC910680F781E02D0995C3
:10059000D0E0C0E020912A0430912B048091270400
:1005A000909128042817390708F4E9CE0E945B01CE
:1005B0009B01AC0160E070E080E090E0A0901C0244
:1005C000B0901D02C0901E02D0901F02E090200249
:1005D000F090210200912202109123020E94AC0AA5
:1005E000E0911A02F0911B021F01220C331C2E0E07
:1005F0003F1E5101C12CD12CE12CF12C00E010E068
:100600000E94B50A09F008F4BACE809118029091C0
:10061000190297FD03C060E00E940F0110922904A7
:1006200010922B0410922A0410922804109227048E
:10063000A6CEC0912704D091280480912A049091DD
:100640002B04C81BD90BD1F0809114029091150294
:10065000DC01ED91FC910280F381E02DAE0167E2B7
:1006600073E00995EC018091140290911502DC0170
:10067000ED91FC910680F781E02D099580912A0487
:1006800090912B048C0F9D1F90932B0480932A0430
:100690009E0140E050E060E070E080E090E0A090DB
:1006A0002C04B0902D04C0902E04D0902F04E09024
:1006B0003004F090310400913204109133040E9410
:1006C000A30A20932C0430932D0440932E045093BE
:1006D0002F0460933004709331048093320490931C
:1006E000330458CF20912403309125032430310561
:1006F00040F090912603911104C090912402992317
:1007000079F025E030E0309328042093270490917D
:100710002803906890932803809329030C94800108
:1007200090E080E00895AF92BF92CF92DF92EF9277
:10073000FF920F931F93CF93DF936C017B018B018B
:10074000040F151FEB015E01AE18BF08C017D107DB
:1007500059F06991D601ED91FC910190F081E02D65
:10076000C6010995892B79F7C501DF91CF911F91BA
:100770000F91FF90EF90DF90CF90BF90AF900895D2
:10078000FC01538D448D252F30E0842F90E0821B97
:10079000930B541710F0CF96089501970895FC011C
:1007A000918D828D981761F0A28DAE0FBF2FB11D74
:1007B0005D968C91928D9F5F9F73928F90E00895CC
:1007C0008FEF9FEF0895FC01918D828D981731F086
:1007D000828DE80FF11D858D90E008958FEF9FEFDA
:1007E0000895FC01918D228D892F90E0805C9F4FB0
:1007F000821B91098F739927089581E791E00E94E8
:10080000F10321E0892B09F420E0822F089580E094
:1008100090E0892B29F00E94FD0381110C940000C7
:100820000895FC01A48DA80FB92FB11DA35ABF4F85
:100830002C91848D90E001968F739927848FA689DF
:10084000B7892C93A089B1898C91837080648C9333
:10085000938D848D981306C00288F389E02D8081E2
:100860008F7D80830895EF92FF920F931F93CF9314
:10087000DF93EC0181E0888F9B8D8C8D98131AC0DB
:10088000E889F989808185FF15C09FB7F894EE89C2
:10089000FF896083E889F98980818370806480831F
:1008A0009FBF81E090E0DF91CF911F910F91FF906A
:1008B000EF900895F62E0B8D10E00F5F1F4F0F7312
:1008C0001127E02E8C8D8E110CC00FB607FCFACFCD
:1008D000E889F989808185FFF5CFCE010E94110456
:1008E000F1CFEB8DEC0FFD2FF11DE35AFF4FF0829E
:1008F0009FB7F8940B8FEA89FB8980818062CFCF04
:10090000CF93DF93EC01888D8823B9F0AA89BB8946
:10091000E889F9898C9185FD03C0808186FD0DC031
:100920000FB607FCF7CF8C9185FFF2CF808185FF52
:10093000EDCFCE010E941104E9CFDF91CF91089550
:100940001F93CF93DF93EA016531710598F59B0101
:10095000240F351F2531310568F55091250253507C
:10096000A0912704B09128041297CC0FDD1F660FC9
:10097000771F90E080E08C179D0709F15230C0F49A
:100980009C012B5F3F4FA217B30790F0FB01E80FCC
:10099000F91FE85EFE4F408111819C01225F3D4FAF
:1009A000F901E45EFE4F1083235E3E4FF901408360
:1009B0000296E1CF82E0DF91CF911F91089580E010
:1009C000FACF90E080E08417950741F09C01260F54
:1009D000371F2730310521F00196F5CF80E00895CB
:1009E00083E008951F93CF93DF93EA01653171058A
:1009F00098F59B01240F351F2531310568F550917D
:100A000025025350A0912704B09128041297CC0FCF
:100A1000DD1F660F771F90E080E08C179D0709F1BE
:100A20005230C0F49C012B5F3F4FA217B30790F0E8
:100A3000FB01E80FF91FE05CFE4F408111819C0132
:100A4000225F3D4FF901E45EFE4F1083235E3E4F6F
:100A5000F90140830296E1CF82E0DF91CF911F91AF
:100A6000089580E0FACF1F920F920FB60F921124D3
:100A70002F933F938F939F93AF93BF93809169017F
:100A800090916A01A0916B01B0916C013091680165
:100A900023E0230F2D3758F50196A11DB11D20939A
:100AA00068018093690190936A01A0936B01B093F0
:100AB0006C0180916D0190916E01A0916F01B091D8
:100AC00070010196A11DB11D80936D0190936E017F
:100AD000A0936F01B0937001BF91AF919F918F91DF
:100AE0003F912F910F900FBE0F901F90189526E801
:100AF000230F0296A11DB11DD2CF1F920F920FB6E8
:100B00000F9211242F933F934F935F936F937F9393
:100B10008F939F93AF93BF93EF93FF9381E791E000
:100B20000E941104FF91EF91BF91AF919F918F911E
:100B30007F916F915F914F913F912F910F900FBED9
:100B40000F901F9018951F920F920FB60F921124BD
:100B50002F938F939F93EF93FF93E0918101F091F7
:100B600082018081E0918701F091880182FD1BC0A4
:100B7000908180918A018F5F8F7320918B01821702
:100B800041F0E0918A01F0E0EF58FE4F958F80939D
:100B90008A01FF91EF919F918F912F910F900FBE3E
:100BA0000F901F9018958081F4CFCF93DF93C1E70A
:100BB000D1E01B821A8288EE93E0A0E0B0E08C8343
:100BC0009D83AE83BF838AE091E09983888385EC1F
:100BD00090E09D878C8784EC90E09F878E8780ECE7
:100BE00090E0998B888B81EC90E09B8B8A8B82ECD8
:100BF00090E09D8B8C8B86EC90E09F8B8E8B198E7A
:100C00001A8E1B8E1C8E8FE090E00E94BE0A21E09F
:100C1000FC012687AEE0B2E013969C938E93129768
:100C200014962C93149715962C9315971796DC937E
:100C3000CE93169720E430E019963C932E931897A4
:100C40001092250310922403109226031092280478
:100C5000109227041092290410922B0410922A0457
:100C6000ECE2F4E010821182128213821482158267
:100C700016821782E4E3F4E010821182128213825A
:100C8000148215821682178211969C938E9384E0AB
:100C900090E01B969C938E931A97DF91CF910895C5
:100CA000CF93DF93CDB7DEB728970FB6F894DEBFAA
:100CB0000FBECDBF789484B5826084BD84B5816059
:100CC00084BD85B5826085BD85B5816085BD809117
:100CD0006E00816080936E0010928100809181008F
:100CE0008260809381008091810081608093810087
:100CF000809180008160809380008091B100846049
:100D00008093B1008091B00081608093B0008091A9
:100D10007A00846080937A0080917A008260809368
:100D20007A0080917A00816080937A0080917A00C5
:100D3000806880937A001092C100E0918101F09167
:100D4000820182E08083E0917D01F0917E0110823A
:100D5000E0917F01F091800187E680831092890104
:100D6000E0918501F091860186E08083E091830126
:100D7000F0918401808180618083E0918301F09112
:100D80008401808188608083E0918301F0918401F7
:100D9000808180688083E0918301F091840180816B
:100DA0008F7D8083809118029091190297FD23C056
:100DB0009927FC01E057FF4F249184589F4FFC0175
:100DC0008491882399F090E0880F991FFC01E859DD
:100DD000FF4FA591B491FC01EE58FF4F859194917E
:100DE0008FB7F894EC91E22BEC938FBF60E0809189
:100DF00018020E940F01E0911402F0911502148272
:100E00001582168217828091140290911502DC01DE
:100E1000ED91FC910680F781E02D099580911402F7
:100E200090911502DC01ED91FC910480F581E02D9B
:100E30000995909317028093160284E091E09093B5
:100E40001B0280931A020E945B0140911A0250918A
:100E50001B02E7E0E49F9001E59F300D1124DC01C7
:100E6000CB01820F931FA11DB11D5C016D01E12C0F
:100E7000F12C87018983BA82AB83DC82ED82FE820A
:100E80000F83188780931C02B0921D02A0931E024C
:100E9000D0921F0210922002109221021092220280
:100EA000109223021092250310922403E0910E0267
:100EB000F0910F0282EF94E09583848381EE94E0B9
:100EC0009387828780EA94E0978386838AE0682EFE
:100ED000712C94E0292E312C28E0822E912C0EEFDB
:100EE000402E509029045520D9F00E94800181E0C5
:100EF00090E090934101809340013092190120923B
:100F0000180170921B0160921A0100E010E0012BA1
:100F100041F30E94FD03882311F30E940000DFCFFC
:100F20008091140290911502DC01ED91FC910084F6
:100F3000F185E02D099520912603892B09F4CFC076
:100F4000211144C00E945B019B01AC0160E070E094
:100F500080E090E0A0901C02B0901D02C0901E02A4
:100F6000D0901F02E0902002F09021020091220216
:100F7000109123020E94AC0AA0911A02B0911B02A8
:100F8000FD01EE0FFF1FEA0FFB1F5F01D12CC12CEB
:100F9000E12CF12C8701E983BA82CB82DC82ED82DD
:100FA000FE820F831887C12CD12CE12CF12C00E09C
:100FB00010E00E94B50A09F008F485C010922503DC
:100FC00010922403BB24B394B0922603809126038D
:100FD000882309F436C200912403109125030115DA
:100FE000B1E01B0711F410922603E12CFF24F394C7
:100FF000E01AF10AC0901402D09015020C5D1D4F4A
:101000001A821982A980BA80EA14FB04B9F12FB7B9
:10101000F8948091690190916A01A0916B01B0915F
:101020006C012FBFF60180879187A287B387D60115
:10103000ED91FC910284F385E02DC601099597FF9F
:10104000C4C12FB7F8948091690190916A01A09171
:101050006B01B0916C012FBFF6014085518562850F
:101060007385841B950BA60BB70B44815581668154
:10107000778184179507A607B707C8F280912403E4
:1010800090912503009709F0ABC1A980BA80AB28E5
:1010900009F4A6C150912402552309F4A1C160911D
:1010A0001202209110023091110240E0641709F4FD
:1010B00095C1215F3F4FF90131977081571709F4AE
:1010C0008FC14F5FF3CF8091140290911502DC0124
:1010D000ED91FC910284F385E02D099577CF2223D1
:1010E00009F405CF0E945B019B01AC0160E070E058
:1010F00080E090E0A0901C02B0901D02C0901E0203
:10110000D0901F02E0902002F09021020091220274
:10111000109123020E94AC0AA0911A02B0911B0206
:10112000FD01EE0FFF1FEA0FFB1F5F01D12CC12C49
:10113000E12CF12C8701E983BA82CB82DC82ED823B
:10114000FE820F831887C12CD12CE12CF12C00E0FA
:1011500010E00E94B50A09F008F4C9CE10922603E7
:1011600000912403109125030430110508F4BFCE2B
:10117000A9E2B3E0E42D1D92EA95E9F7D0902402AC
:10118000D0922703C0902502C092280330922804F1
:101190002092270420911302222309F4A8CEDD20F7
:1011A00009F4B1C140911202809110029091110294
:1011B00030E0431709F49BCE0F96FC013197508124
:1011C000D51609F45EC13F5FF4CF20E0DD2009F4BD
:1011D0008ECE522E24E030E03A8329837AC168E033
:1011E00070E07A8369836FC1A980BA80B0922503C9
:1011F000A09224038D2D90E0EFEFEC0DE03108F08C
:1012000080C1F0E0EA5FF64F0C949D0A2E092E098A
:101210005A095A097D0995091609810A810A810A24
:10122000810A810A810A810AAD09C909892B09F459
:1012300068C175E0E72EF12CF0922804E0922704B3
:1012400028E030E050E040E066E08D2D0E9487000D
:10125000882309F44ACE0E94720349CE892B09F4EF
:1012600050C1409126025091270254274527542708
:101270002091280230912902322723273227B901F1
:1012800067707727E1E0672B09F4E0E0C90163E0CC
:10129000969587956A95E1F78E0F8093290390E0E4
:1012A0000596909328048093270461E0C612CDCF61
:1012B00060E0CBCF892B09F424C1409126025091E4
:1012C00027025427452754272091280230912902CC
:1012D000322723273227822F880F8093290390E01B
:1012E0000596909328048093270483E0F82E62E00B
:1012F000CF1409F4AACF63E0A8CF40912602509101
:1013000027025427452754279092280480922704C7
:1013100084E0E6E2F2E0A9E2B3E001900D928A9562
:10132000E1F721E030E064E090CF40912602509157
:101330002702542745275427909228048092270497
:1013400084E0E6E2F2E0A9E2B3E001900D928A9532
:10135000E1F721E030E065E078CF4091260250913E
:10136000270254274527542720912802309129022B
:10137000322723273227909228048092270484E082
:10138000E6E2F2E0A9E2B3E001900D928A95E1F77E
:10139000CACF40912602509127025427452754274F
:1013A0002091280230912902322723273227909258
:1013B00028048092270484E0E6E2F2E0A9E2B3E0A8
:1013C00001900D928A95E1F7C6CFD8018D938D01DA
:1013D000E981FA813196FA83E98314CE10922603CB
:1013E000C980DA808C0D9D1D909325038093240382
:1013F000960140E050E060E070E080E090E0A09076
:101400003404B0903504C0903604D0903704E09096
:101410003804F090390400913A0410913B040E9482
:10142000A30A209334043093350440933604509338
:101430003704609338047093390480933A0490938E
:101440003B040E945B015B016C01E12CF12C8701E4
:101450006983BA828B83DC82ED82FE820F831887D8
:1014600060931C02B0921D0280931E02D0921F0254
:101470001092200210922102109222021092230256
:1014800036CDF7E0CF1609F4A0CEFC1550F0AA2413
:10149000A394CA1408F49DCE48E050E05A834983CF
:1014A00012C081EF8C0D823008F093CE0930110507
:1014B00008F41DCDF0912A02AF2EB12C9501275FC3
:1014C0003F4F3A832983A980BA800A151B0508F487
:1014D0000ECD780122E0E21AF108B70184E292E031
:1014E0000E94F100F801E25FFD4F3589F701E25FEC
:1014F000FD4F26898217930709F0F9CC552009F48E
:1015000073CE81E0A8CEEFEFEC0DE03108F061CEB4
:10151000F0E0E357F54F0C949D0A770777077707BC
:101520007707EF08EF087707E908E908E908E9080D
:10153000E908E908E908560A560AEE0FFF1F059068
:10154000F491E02D09942A0D3B1D4C1D5D1D6E1D6F
:101550007F1D801F911F08952A193B094C095D09C1
:101560006E097F09800B910B08952A153B054C05E8
:101570005D056E057F058007910708950F931F9302
:10158000CF93DF938230910510F482E090E0E091F8
:101590003E04F0913F0430E020E0B0E0A0E030975E
:1015A00099F42115310509F44AC0281B390B243060
:1015B0003105D8F58A819B816115710589F1FB019F
:1015C00093838283FE0111C0408151810281138186
:1015D00048175907E0F04817590799F4109761F038
:1015E00012960C93129713961C933296CF01DF91AB
:1015F000CF911F910F91089500933E0410933F04E3
:10160000F4CF2115310551F04217530738F0A901E5
:10161000DB019A01BD01DF01F801C1CFEF01F9CF74
:1016200090933F0480933E04CDCFFE01E20FF31F61
:10163000819391932250310939832883D7CF209108
:101640003C0430913D04232B41F420910201309160
:10165000030130933D0420933C042091000130911C
:1016600001012115310541F42DB73EB74091040128
:1016700050910501241B350BE0913C04F0913D0491
:10168000E217F307A0F42E1B3F0B2817390778F059
:10169000AC014E5F5F4F2417350748F04E0F5F1FB8
:1016A00050933D0440933C04819391939FCFF0E08D
:1016B000E0E09CCFCF93DF930097E9F0FC013297F5
:1016C00013821282A0913E04B0913F04ED0130E0FC
:1016D00020E01097A1F420813181820F931F209187
:1016E0003C0430913D042817390709F061C0F0939C
:1016F0003D04E0933C04DF91CF910895EA01CE17B9
:10170000DF07E8F54A815B819E0141155105B1F77C
:10171000E901FB83EA8349915991C40FD51FEC1766
:10172000FD0761F4808191810296840F951FE90184
:1017300099838883828193819B838A83F0E0E0E0B0
:1017400012968D919C9113970097B9F52D913C912C
:101750001197CD010296820F931F20913C04309186
:101760003D042817390739F6309751F510923F0498
:1017700010923E04B0933D04A0933C04BCCFD383AD
:10178000C28340815181840F951FC817D90761F426
:101790004E5F5F4F88819981480F591F5183408365
:1017A0008A819B81938382832115310509F0B0CF13
:1017B000F0933F04E0933E049ECFFD01DC01C0CFD7
:1017C00013821282D7CFF894FFCF0000400480002C
:1017D0000000000033049303C0038004F103CF032F
:0217E000E30321
:107E0000112484B714BE81FFF0D085E080938100F7
:107E100082E08093C00088E18093C10086E0809377
:107E2000C20080E18093C4008EE0C9D0259A86E02C
:107E300020E33CEF91E0309385002093840096BBD3
:107E4000B09BFECF1D9AA8958150A9F7CC24DD24C4
:107E500088248394B5E0AB2EA1E19A2EF3E0BF2EE7
:107E6000A2D0813461F49FD0082FAFD0023811F036
:107E7000013811F484E001C083E08DD089C08234E0
:107E800011F484E103C0853419F485E0A6D080C0E4
:107E9000853579F488D0E82EFF2485D0082F10E0AE
:107EA000102F00270E291F29000F111F8ED06801E7
:107EB0006FC0863521F484E090D080E0DECF843638
:107EC00009F040C070D06FD0082F6DD080E0C81688
:107ED00080E7D80618F4F601B7BEE895C0E0D1E017
:107EE00062D089930C17E1F7F0E0CF16F0E7DF06D8
:107EF00018F0F601B7BEE89568D007B600FCFDCFD4
:107F0000A601A0E0B1E02C9130E011968C91119780
:107F100090E0982F8827822B932B1296FA010C0160
:107F200087BEE89511244E5F5F4FF1E0A038BF0790
:107F300051F7F601A7BEE89507B600FCFDCF97BE46
:107F4000E89526C08437B1F42ED02DD0F82E2BD052
:107F50003CD0F601EF2C8F010F5F1F4F84911BD097
:107F6000EA94F801C1F70894C11CD11CFA94CF0C13
:107F7000D11C0EC0853739F428D08EE10CD085E9AC
:107F80000AD08FE07ACF813511F488E018D01DD067
:107F900080E101D065CF982F8091C00085FFFCCF94
:107FA0009093C60008958091C00087FFFCCF809118
:107FB000C00084FD01C0A8958091C6000895E0E648
:107FC000F0E098E1908380830895EDDF803219F02E
:107FD00088E0F5DFFFCF84E1DECF1F93182FE3DFCA
:107FE0001150E9F7F2DF1F91089580E0E8DFEE27F6
:047FF000FF270994CA
:027FFE00040479
:00000001FF
